{
  "_format": "hh-sol-artifact-1",
  "contractName": "Authorizer",
  "sourceName": "contracts/Authorizer.sol",
  "abi": [
    {
      "inputs": [
        {
          "internalType": "address",
          "name": "admin",
          "type": "address"
        }
      ],
      "stateMutability": "nonpayable",
      "type": "constructor"
    },
    {
      "anonymous": false,
      "inputs": [
        {
          "indexed": true,
          "internalType": "bytes32",
          "name": "role",
          "type": "bytes32"
        },
        {
          "indexed": true,
          "internalType": "bytes32",
          "name": "previousAdminRole",
          "type": "bytes32"
        },
        {
          "indexed": true,
          "internalType": "bytes32",
          "name": "newAdminRole",
          "type": "bytes32"
        }
      ],
      "name": "RoleAdminChanged",
      "type": "event"
    },
    {
      "anonymous": false,
      "inputs": [
        {
          "indexed": true,
          "internalType": "bytes32",
          "name": "role",
          "type": "bytes32"
        },
        {
          "indexed": true,
          "internalType": "address",
          "name": "account",
          "type": "address"
        },
        {
          "indexed": true,
          "internalType": "address",
          "name": "sender",
          "type": "address"
        },
        {
          "indexed": false,
          "internalType": "address",
          "name": "where",
          "type": "address"
        }
      ],
      "name": "RoleGranted",
      "type": "event"
    },
    {
      "anonymous": false,
      "inputs": [
        {
          "indexed": true,
          "internalType": "bytes32",
          "name": "role",
          "type": "bytes32"
        },
        {
          "indexed": true,
          "internalType": "address",
          "name": "account",
          "type": "address"
        },
        {
          "indexed": true,
          "internalType": "address",
          "name": "sender",
          "type": "address"
        }
      ],
      "name": "RoleGrantedGlobally",
      "type": "event"
    },
    {
      "anonymous": false,
      "inputs": [
        {
          "indexed": true,
          "internalType": "bytes32",
          "name": "role",
          "type": "bytes32"
        },
        {
          "indexed": true,
          "internalType": "address",
          "name": "account",
          "type": "address"
        },
        {
          "indexed": true,
          "internalType": "address",
          "name": "sender",
          "type": "address"
        },
        {
          "indexed": false,
          "internalType": "address",
          "name": "where",
          "type": "address"
        }
      ],
      "name": "RoleRevoked",
      "type": "event"
    },
    {
      "anonymous": false,
      "inputs": [
        {
          "indexed": true,
          "internalType": "bytes32",
          "name": "role",
          "type": "bytes32"
        },
        {
          "indexed": true,
          "internalType": "address",
          "name": "account",
          "type": "address"
        },
        {
          "indexed": true,
          "internalType": "address",
          "name": "sender",
          "type": "address"
        }
      ],
      "name": "RoleRevokedGlobally",
      "type": "event"
    },
    {
      "inputs": [],
      "name": "DEFAULT_ADMIN_ROLE",
      "outputs": [
        {
          "internalType": "bytes32",
          "name": "",
          "type": "bytes32"
        }
      ],
      "stateMutability": "view",
      "type": "function"
    },
    {
      "inputs": [],
      "name": "GLOBAL_ROLE_ADMIN",
      "outputs": [
        {
          "internalType": "address",
          "name": "",
          "type": "address"
        }
      ],
      "stateMutability": "view",
      "type": "function"
    },
    {
      "inputs": [
        {
          "internalType": "bytes32",
          "name": "actionId",
          "type": "bytes32"
        },
        {
          "internalType": "address",
          "name": "account",
          "type": "address"
        },
        {
          "internalType": "address",
          "name": "where",
          "type": "address"
        }
      ],
      "name": "canPerform",
      "outputs": [
        {
          "internalType": "bool",
          "name": "",
          "type": "bool"
        }
      ],
      "stateMutability": "view",
      "type": "function"
    },
    {
      "inputs": [
        {
          "internalType": "bytes32",
          "name": "role",
          "type": "bytes32"
        }
      ],
      "name": "getRoleAdmin",
      "outputs": [
        {
          "internalType": "bytes32",
          "name": "",
          "type": "bytes32"
        }
      ],
      "stateMutability": "view",
      "type": "function"
    },
    {
      "inputs": [
        {
          "internalType": "bytes32",
          "name": "role",
          "type": "bytes32"
        },
        {
          "internalType": "uint256",
          "name": "index",
          "type": "uint256"
        }
      ],
      "name": "getRoleGlobalMember",
      "outputs": [
        {
          "internalType": "address",
          "name": "",
          "type": "address"
        }
      ],
      "stateMutability": "view",
      "type": "function"
    },
    {
      "inputs": [
        {
          "internalType": "bytes32",
          "name": "role",
          "type": "bytes32"
        }
      ],
      "name": "getRoleGlobalMemberCount",
      "outputs": [
        {
          "internalType": "uint256",
          "name": "",
          "type": "uint256"
        }
      ],
      "stateMutability": "view",
      "type": "function"
    },
    {
      "inputs": [
        {
          "internalType": "bytes32",
          "name": "role",
          "type": "bytes32"
        },
        {
          "internalType": "uint256",
          "name": "index",
          "type": "uint256"
        },
        {
          "internalType": "address",
          "name": "where",
          "type": "address"
        }
      ],
      "name": "getRoleMemberByContract",
      "outputs": [
        {
          "internalType": "address",
          "name": "",
          "type": "address"
        }
      ],
      "stateMutability": "view",
      "type": "function"
    },
    {
      "inputs": [
        {
          "internalType": "bytes32",
          "name": "role",
          "type": "bytes32"
        },
        {
          "internalType": "address",
          "name": "where",
          "type": "address"
        }
      ],
      "name": "getRoleMemberCountByContract",
      "outputs": [
        {
          "internalType": "uint256",
          "name": "",
          "type": "uint256"
        }
      ],
      "stateMutability": "view",
      "type": "function"
    },
    {
      "inputs": [
        {
          "internalType": "bytes32",
          "name": "role",
          "type": "bytes32"
        },
        {
          "internalType": "address",
          "name": "account",
          "type": "address"
        },
        {
          "internalType": "address[]",
          "name": "where",
          "type": "address[]"
        }
      ],
      "name": "grantRole",
      "outputs": [],
      "stateMutability": "nonpayable",
      "type": "function"
    },
    {
      "inputs": [
        {
          "internalType": "bytes32",
          "name": "role",
          "type": "bytes32"
        },
        {
          "internalType": "address",
          "name": "account",
          "type": "address"
        }
      ],
      "name": "grantRoleGlobally",
      "outputs": [],
      "stateMutability": "nonpayable",
      "type": "function"
    },
    {
      "inputs": [
        {
          "internalType": "bytes32[]",
          "name": "roles",
          "type": "bytes32[]"
        },
        {
          "internalType": "address",
          "name": "account",
          "type": "address"
        },
        {
          "internalType": "address[]",
          "name": "where",
          "type": "address[]"
        }
      ],
      "name": "grantRoles",
      "outputs": [],
      "stateMutability": "nonpayable",
      "type": "function"
    },
    {
      "inputs": [
        {
          "internalType": "bytes32[]",
          "name": "roles",
          "type": "bytes32[]"
        },
        {
          "internalType": "address",
          "name": "account",
          "type": "address"
        }
      ],
      "name": "grantRolesGlobally",
      "outputs": [],
      "stateMutability": "nonpayable",
      "type": "function"
    },
    {
      "inputs": [
        {
          "internalType": "bytes32[]",
          "name": "roles",
          "type": "bytes32[]"
        },
        {
          "internalType": "address[]",
          "name": "accounts",
          "type": "address[]"
        }
      ],
      "name": "grantRolesGloballyToMany",
      "outputs": [],
      "stateMutability": "nonpayable",
      "type": "function"
    },
    {
      "inputs": [
        {
          "internalType": "bytes32[]",
          "name": "roles",
          "type": "bytes32[]"
        },
        {
          "internalType": "address[]",
          "name": "accounts",
          "type": "address[]"
        },
        {
          "internalType": "address[]",
          "name": "where",
          "type": "address[]"
        }
      ],
      "name": "grantRolesToMany",
      "outputs": [],
      "stateMutability": "nonpayable",
      "type": "function"
    },
    {
      "inputs": [
        {
          "internalType": "bytes32",
          "name": "role",
          "type": "bytes32"
        },
        {
          "internalType": "address",
          "name": "account",
          "type": "address"
        },
        {
          "internalType": "address",
          "name": "where",
          "type": "address"
        }
      ],
      "name": "hasRole",
      "outputs": [
        {
          "internalType": "bool",
          "name": "",
          "type": "bool"
        }
      ],
      "stateMutability": "view",
      "type": "function"
    },
    {
      "inputs": [
        {
          "internalType": "bytes32",
          "name": "role",
          "type": "bytes32"
        },
        {
          "internalType": "address",
          "name": "account",
          "type": "address"
        },
        {
          "internalType": "address[]",
          "name": "where",
          "type": "address[]"
        }
      ],
      "name": "renounceRole",
      "outputs": [],
      "stateMutability": "nonpayable",
      "type": "function"
    },
    {
      "inputs": [
        {
          "internalType": "bytes32",
          "name": "role",
          "type": "bytes32"
        },
        {
          "internalType": "address",
          "name": "account",
          "type": "address"
        }
      ],
      "name": "renounceRoleGlobally",
      "outputs": [],
      "stateMutability": "nonpayable",
      "type": "function"
    },
    {
      "inputs": [
        {
          "internalType": "bytes32",
          "name": "role",
          "type": "bytes32"
        },
        {
          "internalType": "address",
          "name": "account",
          "type": "address"
        },
        {
          "internalType": "address[]",
          "name": "where",
          "type": "address[]"
        }
      ],
      "name": "revokeRole",
      "outputs": [],
      "stateMutability": "nonpayable",
      "type": "function"
    },
    {
      "inputs": [
        {
          "internalType": "bytes32",
          "name": "role",
          "type": "bytes32"
        },
        {
          "internalType": "address",
          "name": "account",
          "type": "address"
        }
      ],
      "name": "revokeRoleGlobally",
      "outputs": [],
      "stateMutability": "nonpayable",
      "type": "function"
    },
    {
      "inputs": [
        {
          "internalType": "bytes32[]",
          "name": "roles",
          "type": "bytes32[]"
        },
        {
          "internalType": "address",
          "name": "account",
          "type": "address"
        },
        {
          "internalType": "address[]",
          "name": "where",
          "type": "address[]"
        }
      ],
      "name": "revokeRoles",
      "outputs": [],
      "stateMutability": "nonpayable",
      "type": "function"
    },
    {
      "inputs": [
        {
          "internalType": "bytes32[]",
          "name": "roles",
          "type": "bytes32[]"
        },
        {
          "internalType": "address[]",
          "name": "accounts",
          "type": "address[]"
        },
        {
          "internalType": "address[]",
          "name": "where",
          "type": "address[]"
        }
      ],
      "name": "revokeRolesFromMany",
      "outputs": [],
      "stateMutability": "nonpayable",
      "type": "function"
    },
    {
      "inputs": [
        {
          "internalType": "bytes32[]",
          "name": "roles",
          "type": "bytes32[]"
        },
        {
          "internalType": "address",
          "name": "account",
          "type": "address"
        }
      ],
      "name": "revokeRolesGlobally",
      "outputs": [],
      "stateMutability": "nonpayable",
      "type": "function"
    },
    {
      "inputs": [
        {
          "internalType": "bytes32[]",
          "name": "roles",
          "type": "bytes32[]"
        },
        {
          "internalType": "address[]",
          "name": "accounts",
          "type": "address[]"
        }
      ],
      "name": "revokeRolesGloballyFromMany",
      "outputs": [],
      "stateMutability": "nonpayable",
      "type": "function"
    }
  ],
  "bytecode": "0x60806040523480156200001157600080fd5b506040516200181338038062001813833981810160405260208110156200003757600080fd5b5051620000466000826200004d565b506200014e565b6200005982826200005d565b5050565b60008281526020818152604090912062000082918390620011cc620000c4821b17901c565b15620000595760405133906001600160a01b0383169084907f287e752593aea8255aeaa7ea93d3e06807273ef2426cde02d5572ee69f16e96990600090a45050565b6000620000d283836200012d565b6200012357508154600180820184556000848152602080822090930180546001600160a01b0319166001600160a01b0386169081179091558554908252828601909352604090209190915562000127565b5060005b92915050565b6001600160a01b031660009081526001919091016020526040902054151590565b6116b5806200015e6000396000f3fe608060405234801561001057600080fd5b506004361061014d5760003560e01c80639aa167a2116100c3578063b5061e7a1161007c578063b5061e7a14610aa6578063b52b585d14610ad2578063b559c89d14610b55578063c7f0420314610b81578063cc4f673514610bad578063cdb7e18714610cae5761014d565b80639aa167a2146108995780639be2a884146108a15780639dfea6a0146108d5578063a217fddf146108f8578063a38ca39414610900578063abbb959214610a235761014d565b8063583b749711610115578063583b74971461040c5780635b852f821461048f5780636d5848a3146104bb5780637bb6d8ac146105de5780638f1096361461075057806393a4bfc4146107985761014d565b806314f82b0d14610152578063248a9ca3146101a0578063434a46c5146101cf57806343744f951461027d57806350acdbd11461029a575b600080fd5b6101846004803603606081101561016857600080fd5b50803590602081013590604001356001600160a01b0316610d5a565b604080516001600160a01b039092168252519081900360200190f35b6101bd600480360360208110156101b657600080fd5b5035610d8f565b60408051918252519081900360200190f35b61027b600480360360408110156101e557600080fd5b810190602081018135600160201b8111156101ff57600080fd5b82018360208201111561021157600080fd5b803590602001918460208302840111600160201b8311171561023257600080fd5b919080806020026020016040519081016040528093929190818152602001838360200280828437600092019190915250929550505090356001600160a01b03169150610da49050565b005b6101bd6004803603602081101561029357600080fd5b5035610dda565b61027b600480360360608110156102b057600080fd5b810190602081018135600160201b8111156102ca57600080fd5b8201836020820111156102dc57600080fd5b803590602001918460208302840111600160201b831117156102fd57600080fd5b9190808060200260200160405190810160405280939291908181526020018383602002808284376000920191909152509295949360208101935035915050600160201b81111561034c57600080fd5b82018360208201111561035e57600080fd5b803590602001918460208302840111600160201b8311171561037f57600080fd5b9190808060200260200160405190810160405280939291908181526020018383602002808284376000920191909152509295949360208101935035915050600160201b8111156103ce57600080fd5b8201836020820111156103e057600080fd5b803590602001918460208302840111600160201b8311171561040157600080fd5b509092509050610df7565b61027b6004803603606081101561042257600080fd5b8135916001600160a01b0360208201351691810190606081016040820135600160201b81111561045157600080fd5b82018360208201111561046357600080fd5b803590602001918460208302840111600160201b8311171561048457600080fd5b509092509050610e50565b61027b600480360360408110156104a557600080fd5b50803590602001356001600160a01b0316610ec2565b61027b600480360360408110156104d157600080fd5b810190602081018135600160201b8111156104eb57600080fd5b8201836020820111156104fd57600080fd5b803590602001918460208302840111600160201b8311171561051e57600080fd5b9190808060200260200160405190810160405280939291908181526020018383602002808284376000920191909152509295949360208101935035915050600160201b81111561056d57600080fd5b82018360208201111561057f57600080fd5b803590602001918460208302840111600160201b831117156105a057600080fd5b919080806020026020016040519081016040528093929190818152602001838360200280828437600092019190915250929550610efc945050505050565b61027b600480360360608110156105f457600080fd5b810190602081018135600160201b81111561060e57600080fd5b82018360208201111561062057600080fd5b803590602001918460208302840111600160201b8311171561064157600080fd5b9190808060200260200160405190810160405280939291908181526020018383602002808284376000920191909152509295949360208101935035915050600160201b81111561069057600080fd5b8201836020820111156106a257600080fd5b803590602001918460208302840111600160201b831117156106c357600080fd5b9190808060200260200160405190810160405280939291908181526020018383602002808284376000920191909152509295949360208101935035915050600160201b81111561071257600080fd5b82018360208201111561072457600080fd5b803590602001918460208302840111600160201b8311171561074557600080fd5b509092509050610f4c565b6107846004803603606081101561076657600080fd5b508035906001600160a01b0360208201358116916040013516610f9e565b604080519115158252519081900360200190f35b61027b600480360360608110156107ae57600080fd5b810190602081018135600160201b8111156107c857600080fd5b8201836020820111156107da57600080fd5b803590602001918460208302840111600160201b831117156107fb57600080fd5b91908080602002602001604051908101604052809392919081815260200183836020028082843760009201919091525092956001600160a01b03853516959094909350604081019250602001359050600160201b81111561085b57600080fd5b82018360208201111561086d57600080fd5b803590602001918460208302840111600160201b8311171561088e57600080fd5b509092509050610fe9565b61018461101c565b610784600480360360608110156108b757600080fd5b508035906001600160a01b0360208201358116916040013516611021565b610184600480360360408110156108eb57600080fd5b508035906020013561102e565b6101bd61101c565b61027b6004803603604081101561091657600080fd5b810190602081018135600160201b81111561093057600080fd5b82018360208201111561094257600080fd5b803590602001918460208302840111600160201b8311171561096357600080fd5b9190808060200260200160405190810160405280939291908181526020018383602002808284376000920191909152509295949360208101935035915050600160201b8111156109b257600080fd5b8201836020820111156109c457600080fd5b803590602001918460208302840111600160201b831117156109e557600080fd5b91908080602002602001604051908101604052809392919081815260200183836020028082843760009201919091525092955061104d945050505050565b61027b60048036036060811015610a3957600080fd5b8135916001600160a01b0360208201351691810190606081016040820135600160201b811115610a6857600080fd5b820183602082011115610a7a57600080fd5b803590602001918460208302840111600160201b83111715610a9b57600080fd5b50909250905061109d565b61027b60048036036040811015610abc57600080fd5b50803590602001356001600160a01b03166110c6565b61027b60048036036060811015610ae857600080fd5b8135916001600160a01b0360208201351691810190606081016040820135600160201b811115610b1757600080fd5b820183602082011115610b2957600080fd5b803590602001918460208302840111600160201b83111715610b4a57600080fd5b5090925090506110f4565b6101bd60048036036040811015610b6b57600080fd5b50803590602001356001600160a01b0316611125565b61027b60048036036040811015610b9757600080fd5b50803590602001356001600160a01b0316611151565b61027b60048036036060811015610bc357600080fd5b810190602081018135600160201b811115610bdd57600080fd5b820183602082011115610bef57600080fd5b803590602001918460208302840111600160201b83111715610c1057600080fd5b91908080602002602001604051908101604052809392919081815260200183836020028082843760009201919091525092956001600160a01b03853516959094909350604081019250602001359050600160201b811115610c7057600080fd5b820183602082011115610c8257600080fd5b803590602001918460208302840111600160201b83111715610ca357600080fd5b509092509050611168565b61027b60048036036040811015610cc457600080fd5b810190602081018135600160201b811115610cde57600080fd5b820183602082011115610cf057600080fd5b803590602001918460208302840111600160201b83111715610d1157600080fd5b919080806020026020016040519081016040528093929190818152602001838360200280828437600092019190915250929550505090356001600160a01b0316915061119b9050565b6000838152602081815260408083206001600160a01b03851684526002019091528120610d87908461122f565b949350505050565b60009081526020819052604090206003015490565b60005b8251811015610dd557610dcd838281518110610dbf57fe5b602002602001015183610ec2565b600101610da7565b505050565b6000818152602081905260408120610df19061124b565b92915050565b610e038451845161124f565b60005b8451811015610e4957610e41858281518110610e1e57fe5b6020026020010151858381518110610e3257fe5b602002602001015185856110f4565b600101610e06565b5050505050565b610e5d8115156067611258565b610e89610e8160008087815260200190815260200160002060030154336000610f9e565b6101a6611258565b60005b81811015610e4957610eba8585858585818110610ea557fe5b905060200201356001600160a01b0316611266565b600101610e8c565b610eee610ee660008085815260200190815260200160002060030154336000610f9e565b6101a7611258565b610ef8828261133c565b5050565b610f088251825161124f565b60005b8251811015610dd557610f44838281518110610f2357fe5b6020026020010151838381518110610f3757fe5b60200260200101516110c6565b600101610f0b565b610f588451845161124f565b60005b8451811015610e4957610f96858281518110610f7357fe5b6020026020010151858381518110610f8757fe5b60200260200101518585610e50565b600101610f5b565b6000838152602081905260408120610fb69084611395565b80610d8757506000848152602081815260408083206001600160a01b03861684526002019091529020610d879084611395565b60005b8451811015610e495761101485828151811061100457fe5b6020026020010151858585610e50565b600101610fec565b600081565b6000610d87848484610f9e565b6000828152602081905260408120611046908361122f565b9392505050565b6110598251825161124f565b60005b8251811015610dd55761109583828151811061107457fe5b602002602001015183838151811061108857fe5b6020026020010151610ec2565b60010161105c565b6110b46001600160a01b03841633146101a8611258565b6110c0848484846113b6565b50505050565b6110ea610e8160008085815260200190815260200160002060030154336000610f9e565b610ef88282611498565b611118610ee660008087815260200190815260200160002060030154336000610f9e565b6110b48115156067611258565b6000828152602081815260408083206001600160a01b038516845260020190915281206110469061124b565b610eee6001600160a01b03821633146101a8611258565b60005b8451811015610e495761119385828151811061118357fe5b60200260200101518585856110f4565b60010161116b565b60005b8251811015610dd5576111c48382815181106111b657fe5b6020026020010151836110c6565b60010161119e565b60006111d88383611395565b61122757508154600180820184556000848152602080822090930180546001600160a01b0319166001600160a01b03861690811790915585549082528286019093526040902091909155610df1565b506000610df1565b81546000906112419083106064611258565b61104683836114f1565b5490565b610ef881831460675b81610ef857610ef88161151e565b6001600160a01b0381166112c1576040805162461bcd60e51b815260206004820181905260248201527f57686572652063616e277420626520474c4f42414c5f524f4c455f41444d494e604482015290519081900360640190fd5b6000838152602081815260408083206001600160a01b038516845260020190915290206112ee90836111cc565b15610dd557604080516001600160a01b0383811682529151339285169186917fcaba87d53b293d545d69ab305284377793434c6fb5428e6244bfadcd434223709181900360200190a4505050565b60008281526020819052604090206113549082611571565b15610ef85760405133906001600160a01b0383169084907fd8476cf9ac7354675e06297f0a3b1f57e056db7e4cefe100071b4ade0983641590600090a45050565b6001600160a01b031660009081526001919091016020526040902054151590565b60005b81811015610e49576000858152602081905260408120611423918691600201908686868181106113e557fe5b905060200201356001600160a01b03166001600160a01b03166001600160a01b0316815260200190815260200160002061157190919063ffffffff16565b1561149057336001600160a01b038516867f473272920ac74dc08931f0d6687401dcb6dd700032e3935fc34aa5ab7245952786868681811061146157fe5b905060200201356001600160a01b031660405180826001600160a01b0316815260200191505060405180910390a45b6001016113b9565b60008281526020819052604090206114b090826111cc565b15610ef85760405133906001600160a01b0383169084907f287e752593aea8255aeaa7ea93d3e06807273ef2426cde02d5572ee69f16e96990600090a45050565b600082600001828154811061150257fe5b6000918252602090912001546001600160a01b03169392505050565b62461bcd60e51b6000908152602060045260076024526642414c23000030600a808404818106603090810160081b95839006959095019082900491820690940160101b939093010160c81b604452606490fd5b6001600160a01b03811660009081526001830160205260408120548015611675578354600019808301910180821461161d5760008660000182815481106115b457fe5b60009182526020909120015487546001600160a01b03909116915081908890859081106115dd57fe5b600091825260208083209190910180546001600160a01b0319166001600160a01b0394851617905592909116815260018881019092526040902090830190555b855486908061162857fe5b60008281526020808220830160001990810180546001600160a01b03191690559092019092556001600160a01b0387168252600188810190915260408220919091559350610df192505050565b6000915050610df156fea2646970667358221220490e96b56b4170702dfc358716d091d180d0033eb17fe9b0282637eb9bf505b964736f6c63430007060033",
  "linkReferences": {},
  "deployedLinkReferences": {}
}