{
  "_format": "hh-sol-artifact-1",
  "contractName": "MockAssetTransfersHandler",
  "sourceName": "contracts/test/MockAssetTransfersHandler.sol",
  "abi": [
    {
      "inputs": [
        {
          "internalType": "contract IWETH",
          "name": "weth",
          "type": "address"
        }
      ],
      "stateMutability": "nonpayable",
      "type": "constructor"
    },
    {
      "inputs": [
        {
          "internalType": "address",
          "name": "account",
          "type": "address"
        },
        {
          "internalType": "contract IERC20",
          "name": "token",
          "type": "address"
        },
        {
          "internalType": "uint256",
          "name": "amount",
          "type": "uint256"
        }
      ],
      "name": "depositToInternalBalance",
      "outputs": [],
      "stateMutability": "nonpayable",
      "type": "function"
    },
    {
      "inputs": [
        {
          "internalType": "address",
          "name": "account",
          "type": "address"
        },
        {
          "internalType": "contract IERC20",
          "name": "token",
          "type": "address"
        }
      ],
      "name": "getInternalBalance",
      "outputs": [
        {
          "internalType": "uint256",
          "name": "",
          "type": "uint256"
        }
      ],
      "stateMutability": "view",
      "type": "function"
    },
    {
      "inputs": [
        {
          "internalType": "contract IAsset",
          "name": "asset",
          "type": "address"
        },
        {
          "internalType": "uint256",
          "name": "amount",
          "type": "uint256"
        },
        {
          "internalType": "address",
          "name": "sender",
          "type": "address"
        },
        {
          "internalType": "bool",
          "name": "fromInternalBalance",
          "type": "bool"
        }
      ],
      "name": "receiveAsset",
      "outputs": [],
      "stateMutability": "payable",
      "type": "function"
    },
    {
      "inputs": [
        {
          "internalType": "contract IAsset",
          "name": "asset",
          "type": "address"
        },
        {
          "internalType": "uint256",
          "name": "amount",
          "type": "uint256"
        },
        {
          "internalType": "address payable",
          "name": "recipient",
          "type": "address"
        },
        {
          "internalType": "bool",
          "name": "toInternalBalance",
          "type": "bool"
        }
      ],
      "name": "sendAsset",
      "outputs": [],
      "stateMutability": "nonpayable",
      "type": "function"
    },
    {
      "stateMutability": "payable",
      "type": "receive"
    }
  ],
  "bytecode": "0x60a060405234801561001057600080fd5b5060405161086d38038061086d83398101604081905261002f91610044565b60601b6001600160601b031916608052610072565b600060208284031215610055578081fd5b81516001600160a01b038116811461006b578182fd5b9392505050565b60805160601c6107de61008f6000398061010152506107de6000f3fe6080604052600436106100435760003560e01c80631f51af7d146100765780638a65d2e01461009657806390c185ae146100cc578063e65f9702146100ec57610071565b366100715761006f6100536100ff565b6001600160a01b0316336001600160a01b031614610206610123565b005b600080fd5b34801561008257600080fd5b5061006f610091366004610722565b610135565b3480156100a257600080fd5b506100b66100b13660046106aa565b610147565b6040516100c39190610787565b60405180910390f35b3480156100d857600080fd5b5061006f6100e73660046106e2565b610170565b61006f6100fa366004610772565b610195565b7f000000000000000000000000000000000000000000000000000000000000000090565b8161013157610131816101a1565b5050565b610141848484846101f4565b50505050565b6001600160a01b0391821660009081526020818152604080832093909416825291909152205490565b6101856001600160a01b0383168430846102d5565b61019083838361032f565b505050565b6101418484848461035f565b62461bcd60e51b6000908152602060045260076024526642414c23000030600a808404818106603090810160081b95839006959095019082900491820690940160101b939093010160c81b604452606490fd5b826101fe57610141565b61020784610436565b15610297576102198115610202610123565b6102216100ff565b6001600160a01b0316632e1a7d4d846040518263ffffffff1660e01b815260040161024c9190610787565b600060405180830381600087803b15801561026657600080fd5b505af115801561027a573d6000803e3d6000fd5b50610292925050506001600160a01b03831684610447565b610141565b60006102a2856104b6565b905081156102ba576102b583828661032f565b6102ce565b6102ce6001600160a01b03821684866104b9565b5050505050565b604080516001600160a01b0380861660248301528416604482015260648082018490528251808303909101815260849091019091526020810180516001600160e01b03166323b872dd60e01b179052610141908590610507565b6001600160a01b039283166000908152602081815260408083209490951682529290925291902080549091019055565b8261036957610141565b61037284610436565b156103f3576103848115610202610123565b61039383471015610204610123565b61039b6100ff565b6001600160a01b031663d0e30db0846040518263ffffffff1660e01b81526004016000604051808303818588803b1580156103d557600080fd5b505af11580156103e9573d6000803e3d6000fd5b5050505050610141565b60006103fe856104b6565b9050811561041b57600061041584838760016105f1565b90940393505b83156102ce576102ce6001600160a01b0382168430876102d5565b6001600160a01b038116155b919050565b610456814710156101a3610123565b6040516000906001600160a01b0384169083908381818185875af1925050503d80600081146104a1576040519150601f19603f3d011682016040523d82523d6000602084013e6104a6565b606091505b50509050610190816101a4610123565b90565b604080516001600160a01b038416602482015260448082018490528251808303909101815260649091019091526020810180516001600160e01b031663a9059cbb60e01b1790526101909084905b600080836001600160a01b0316836040518082805190602001908083835b602083106105445780518252601f199092019160209182019101610525565b6001836020036101000a0380198251168184511680821785525050505050509050019150506000604051808303816000865af19150503d80600081146105a6576040519150601f19603f3d011682016040523d82523d6000602084013e6105ab565b606091505b509150915060008214156105c3573d6000803e3d6000fd5b6101418151600014806105e957508180602001905160208110156105e657600080fd5b50515b6101a2610123565b6001600160a01b0380851660009081526020818152604080832093871683529290529081205482610622578361062c565b61062c818561066c565b91506106388183610684565b6001600160a01b03968716600090815260208181526040808320989099168252969096529590942094909455509192915050565b600081831061067b578161067d565b825b9392505050565b6000610694838311156001610123565b50900390565b8035801515811461044257600080fd5b600080604083850312156106bc578182fd5b82356106c781610790565b915060208301356106d781610790565b809150509250929050565b6000806000606084860312156106f6578081fd5b833561070181610790565b9250602084013561071181610790565b929592945050506040919091013590565b60008060008060808587031215610737578081fd5b843561074281610790565b935060208501359250604085013561075981610790565b91506107676060860161069a565b905092959194509250565b60008060008060808587031215610737578384fd5b90815260200190565b6001600160a01b03811681146107a557600080fd5b5056fea26469706673582212209989546cbbfedb3d9b81d8e9e25478ac8cdc56614cc3f12526cbede5df49e64264736f6c63430007060033",
  "linkReferences": {},
  "deployedLinkReferences": {}
}