{
  "_format": "hh-sol-artifact-1",
  "contractName": "ProtocolFeesCollector",
  "sourceName": "contracts/ProtocolFeesCollector.sol",
  "abi": [
    {
      "inputs": [
        {
          "internalType": "contract IVault",
          "name": "_vault",
          "type": "address"
        }
      ],
      "stateMutability": "nonpayable",
      "type": "constructor"
    },
    {
      "anonymous": false,
      "inputs": [
        {
          "indexed": false,
          "internalType": "uint256",
          "name": "newFlashLoanFeePercentage",
          "type": "uint256"
        }
      ],
      "name": "FlashLoanFeePercentageChanged",
      "type": "event"
    },
    {
      "anonymous": false,
      "inputs": [
        {
          "indexed": false,
          "internalType": "uint256",
          "name": "newSwapFeePercentage",
          "type": "uint256"
        }
      ],
      "name": "SwapFeePercentageChanged",
      "type": "event"
    },
    {
      "inputs": [
        {
          "internalType": "bytes4",
          "name": "selector",
          "type": "bytes4"
        }
      ],
      "name": "getActionId",
      "outputs": [
        {
          "internalType": "bytes32",
          "name": "",
          "type": "bytes32"
        }
      ],
      "stateMutability": "view",
      "type": "function"
    },
    {
      "inputs": [],
      "name": "getAuthorizer",
      "outputs": [
        {
          "internalType": "contract IAuthorizer",
          "name": "",
          "type": "address"
        }
      ],
      "stateMutability": "view",
      "type": "function"
    },
    {
      "inputs": [
        {
          "internalType": "contract IERC20[]",
          "name": "tokens",
          "type": "address[]"
        }
      ],
      "name": "getCollectedFeeAmounts",
      "outputs": [
        {
          "internalType": "uint256[]",
          "name": "feeAmounts",
          "type": "uint256[]"
        }
      ],
      "stateMutability": "view",
      "type": "function"
    },
    {
      "inputs": [],
      "name": "getFlashLoanFeePercentage",
      "outputs": [
        {
          "internalType": "uint256",
          "name": "",
          "type": "uint256"
        }
      ],
      "stateMutability": "view",
      "type": "function"
    },
    {
      "inputs": [],
      "name": "getSwapFeePercentage",
      "outputs": [
        {
          "internalType": "uint256",
          "name": "",
          "type": "uint256"
        }
      ],
      "stateMutability": "view",
      "type": "function"
    },
    {
      "inputs": [
        {
          "internalType": "uint256",
          "name": "newFlashLoanFeePercentage",
          "type": "uint256"
        }
      ],
      "name": "setFlashLoanFeePercentage",
      "outputs": [],
      "stateMutability": "nonpayable",
      "type": "function"
    },
    {
      "inputs": [
        {
          "internalType": "uint256",
          "name": "newSwapFeePercentage",
          "type": "uint256"
        }
      ],
      "name": "setSwapFeePercentage",
      "outputs": [],
      "stateMutability": "nonpayable",
      "type": "function"
    },
    {
      "inputs": [],
      "name": "vault",
      "outputs": [
        {
          "internalType": "contract IVault",
          "name": "",
          "type": "address"
        }
      ],
      "stateMutability": "view",
      "type": "function"
    },
    {
      "inputs": [
        {
          "internalType": "contract IERC20[]",
          "name": "tokens",
          "type": "address[]"
        },
        {
          "internalType": "uint256[]",
          "name": "amounts",
          "type": "uint256[]"
        },
        {
          "internalType": "address",
          "name": "recipient",
          "type": "address"
        }
      ],
      "name": "withdrawCollectedFees",
      "outputs": [],
      "stateMutability": "nonpayable",
      "type": "function"
    }
  ],
  "bytecode": "0x60c060405234801561001057600080fd5b50604051610b05380380610b0583398101604081905261002f9161004d565b30608052600160005560601b6001600160601b03191660a05261007b565b60006020828403121561005e578081fd5b81516001600160a01b0381168114610074578182fd5b9392505050565b60805160a05160601c610a5f6100a66000398061040b52806104f85250806102995250610a5f6000f3fe608060405234801561001057600080fd5b50600436106100935760003560e01c8063851c1bb311610066578063851c1bb3146100f1578063aaabadc514610104578063d877845c14610119578063e42abf3514610121578063fbfa77cf1461014157610093565b806338e9922e1461009857806355c67628146100ad5780636b6b9f69146100cb5780636daefab6146100de575b600080fd5b6100ab6100a6366004610964565b610149565b005b6100b56101a8565b6040516100c291906109ec565b60405180910390f35b6100ab6100d9366004610964565b6101ae565b6100ab6100ec3660046107ae565b610201565b6100b56100ff366004610904565b610293565b61010c6102ed565b6040516100c29190610994565b6100b56102fc565b61013461012f36600461082f565b610302565b6040516100c291906109a8565b61010c610409565b61015161042d565b6101686706f05b59d3b2000082111561025861045e565b60018190556040517fa9ba3ffe0b6c366b81232caab38605a0699ad5398d6cce76f91ee809e322dafc9061019d9083906109ec565b60405180910390a150565b60015490565b6101b661042d565b6101cc662386f26fc1000082111561025961045e565b60028190556040517f5a0b7386237e7f07fa741efc64e59c9387d2cccafec760efed4d53387f20e19a9061019d9083906109ec565b610209610470565b61021161042d565b61021b8483610489565b60005b8481101561028357600086868381811061023457fe5b90506020020160208101906102499190610948565b9050600085858481811061025957fe5b6020029190910135915061027990506001600160a01b0383168583610496565b505060010161021e565b5061028c6104ed565b5050505050565b604080517f00000000000000000000000000000000000000000000000000000000000000006020808301919091526001600160e01b031984168284015282516024818403018152604490920190925280519101205b919050565b60006102f76104f4565b905090565b60025490565b6060815167ffffffffffffffff8111801561031c57600080fd5b50604051908082528060200260200182016040528015610346578160200160208202803683370190505b50905060005b82518110156104035782818151811061036157fe5b60200260200101516001600160a01b03166370a08231306040518263ffffffff1660e01b81526004016103949190610994565b60206040518083038186803b1580156103ac57600080fd5b505afa1580156103c0573d6000803e3d6000fd5b505050506040513d601f19601f820116820180604052508101906103e4919061097c565b8282815181106103f057fe5b602090810291909101015260010161034c565b50919050565b7f000000000000000000000000000000000000000000000000000000000000000081565b60006104446000356001600160e01b031916610293565b905061045b6104538233610587565b61019161045e565b50565b8161046c5761046c81610617565b5050565b6104826002600054141561019061045e565b6002600055565b61046c818314606761045e565b604080516001600160a01b038416602482015260448082018490528251808303909101815260649091019091526020810180516001600160e01b031663a9059cbb60e01b1790526104e890849061066a565b505050565b6001600055565b60007f00000000000000000000000000000000000000000000000000000000000000006001600160a01b031663aaabadc56040518163ffffffff1660e01b815260040160206040518083038186803b15801561054f57600080fd5b505afa158015610563573d6000803e3d6000fd5b505050506040513d601f19601f820116820180604052508101906102f7919061092c565b60006105916104f4565b6001600160a01b0316639be2a8848484306040518463ffffffff1660e01b81526004016105c0939291906109f5565b60206040518083038186803b1580156105d857600080fd5b505afa1580156105ec573d6000803e3d6000fd5b505050506040513d601f19601f8201168201806040525081019061061091906108e4565b9392505050565b62461bcd60e51b6000908152602060045260076024526642414c23000030600a808404818106603090810160081b95839006959095019082900491820690940160101b939093010160c81b604452606490fd5b600080836001600160a01b0316836040518082805190602001908083835b602083106106a75780518252601f199092019160209182019101610688565b6001836020036101000a0380198251168184511680821785525050505050509050019150506000604051808303816000865af19150503d8060008114610709576040519150601f19603f3d011682016040523d82523d6000602084013e61070e565b606091505b50915091506000821415610726573d6000803e3d6000fd5b61075481516000148061074c575081806020019051602081101561074957600080fd5b50515b6101a261045e565b50505050565b60008083601f84011261076b578081fd5b50813567ffffffffffffffff811115610782578182fd5b602083019150836020808302850101111561079c57600080fd5b9250929050565b80356102e881610a14565b6000806000806000606086880312156107c5578081fd5b853567ffffffffffffffff808211156107dc578283fd5b6107e889838a0161075a565b90975095506020880135915080821115610800578283fd5b5061080d8882890161075a565b909450925050604086013561082181610a14565b809150509295509295909350565b60006020808385031215610841578182fd5b823567ffffffffffffffff80821115610858578384fd5b818501915085601f83011261086b578384fd5b81358181111561087757fe5b8381026040518582820101818110858211171561089057fe5b604052828152858101935084860182860187018a10156108ae578788fd5b8795505b838610156108d7576108c3816107a3565b8552600195909501949386019386016108b2565b5098975050505050505050565b6000602082840312156108f5578081fd5b81518015158114610610578182fd5b600060208284031215610915578081fd5b81356001600160e01b031981168114610610578182fd5b60006020828403121561093d578081fd5b815161061081610a14565b600060208284031215610959578081fd5b813561061081610a14565b600060208284031215610975578081fd5b5035919050565b60006020828403121561098d578081fd5b5051919050565b6001600160a01b0391909116815260200190565b6020808252825182820181905260009190848201906040850190845b818110156109e0578351835292840192918401916001016109c4565b50909695505050505050565b90815260200190565b9283526001600160a01b03918216602084015216604082015260600190565b6001600160a01b038116811461045b57600080fdfea26469706673582212200a749059d9bcd2dedb4933558e79b5f7c789efb20559de39bfdf19e2c42439ca64736f6c63430007060033",
  "linkReferences": {},
  "deployedLinkReferences": {}
}