{
  "_format": "hh-sol-artifact-1",
  "contractName": "Vault",
  "sourceName": "contracts/Vault.sol",
  "abi": [
    {
      "inputs": [
        {
          "internalType": "contract IAuthorizer",
          "name": "authorizer",
          "type": "address"
        },
        {
          "internalType": "contract IWETH",
          "name": "weth",
          "type": "address"
        },
        {
          "internalType": "uint256",
          "name": "pauseWindowDuration",
          "type": "uint256"
        },
        {
          "internalType": "uint256",
          "name": "bufferPeriodDuration",
          "type": "uint256"
        }
      ],
      "stateMutability": "nonpayable",
      "type": "constructor"
    },
    {
      "anonymous": false,
      "inputs": [
        {
          "indexed": true,
          "internalType": "contract IAuthorizer",
          "name": "newAuthorizer",
          "type": "address"
        }
      ],
      "name": "AuthorizerChanged",
      "type": "event"
    },
    {
      "anonymous": false,
      "inputs": [
        {
          "indexed": true,
          "internalType": "contract IERC20",
          "name": "token",
          "type": "address"
        },
        {
          "indexed": true,
          "internalType": "address",
          "name": "sender",
          "type": "address"
        },
        {
          "indexed": false,
          "internalType": "address",
          "name": "recipient",
          "type": "address"
        },
        {
          "indexed": false,
          "internalType": "uint256",
          "name": "amount",
          "type": "uint256"
        }
      ],
      "name": "ExternalBalanceTransfer",
      "type": "event"
    },
    {
      "anonymous": false,
      "inputs": [
        {
          "indexed": true,
          "internalType": "contract IFlashLoanRecipient",
          "name": "recipient",
          "type": "address"
        },
        {
          "indexed": true,
          "internalType": "contract IERC20",
          "name": "token",
          "type": "address"
        },
        {
          "indexed": false,
          "internalType": "uint256",
          "name": "amount",
          "type": "uint256"
        },
        {
          "indexed": false,
          "internalType": "uint256",
          "name": "feeAmount",
          "type": "uint256"
        }
      ],
      "name": "FlashLoan",
      "type": "event"
    },
    {
      "anonymous": false,
      "inputs": [
        {
          "indexed": true,
          "internalType": "address",
          "name": "user",
          "type": "address"
        },
        {
          "indexed": true,
          "internalType": "contract IERC20",
          "name": "token",
          "type": "address"
        },
        {
          "indexed": false,
          "internalType": "int256",
          "name": "delta",
          "type": "int256"
        }
      ],
      "name": "InternalBalanceChanged",
      "type": "event"
    },
    {
      "anonymous": false,
      "inputs": [
        {
          "indexed": false,
          "internalType": "bool",
          "name": "paused",
          "type": "bool"
        }
      ],
      "name": "PausedStateChanged",
      "type": "event"
    },
    {
      "anonymous": false,
      "inputs": [
        {
          "indexed": true,
          "internalType": "bytes32",
          "name": "poolId",
          "type": "bytes32"
        },
        {
          "indexed": true,
          "internalType": "address",
          "name": "liquidityProvider",
          "type": "address"
        },
        {
          "indexed": false,
          "internalType": "contract IERC20[]",
          "name": "tokens",
          "type": "address[]"
        },
        {
          "indexed": false,
          "internalType": "int256[]",
          "name": "deltas",
          "type": "int256[]"
        },
        {
          "indexed": false,
          "internalType": "uint256[]",
          "name": "protocolFeeAmounts",
          "type": "uint256[]"
        }
      ],
      "name": "PoolBalanceChanged",
      "type": "event"
    },
    {
      "anonymous": false,
      "inputs": [
        {
          "indexed": true,
          "internalType": "bytes32",
          "name": "poolId",
          "type": "bytes32"
        },
        {
          "indexed": true,
          "internalType": "address",
          "name": "assetManager",
          "type": "address"
        },
        {
          "indexed": true,
          "internalType": "contract IERC20",
          "name": "token",
          "type": "address"
        },
        {
          "indexed": false,
          "internalType": "int256",
          "name": "cashDelta",
          "type": "int256"
        },
        {
          "indexed": false,
          "internalType": "int256",
          "name": "managedDelta",
          "type": "int256"
        }
      ],
      "name": "PoolBalanceManaged",
      "type": "event"
    },
    {
      "anonymous": false,
      "inputs": [
        {
          "indexed": true,
          "internalType": "bytes32",
          "name": "poolId",
          "type": "bytes32"
        },
        {
          "indexed": true,
          "internalType": "address",
          "name": "poolAddress",
          "type": "address"
        },
        {
          "indexed": false,
          "internalType": "enum IVault.PoolSpecialization",
          "name": "specialization",
          "type": "uint8"
        }
      ],
      "name": "PoolRegistered",
      "type": "event"
    },
    {
      "anonymous": false,
      "inputs": [
        {
          "indexed": true,
          "internalType": "address",
          "name": "relayer",
          "type": "address"
        },
        {
          "indexed": true,
          "internalType": "address",
          "name": "sender",
          "type": "address"
        },
        {
          "indexed": false,
          "internalType": "bool",
          "name": "approved",
          "type": "bool"
        }
      ],
      "name": "RelayerApprovalChanged",
      "type": "event"
    },
    {
      "anonymous": false,
      "inputs": [
        {
          "indexed": true,
          "internalType": "bytes32",
          "name": "poolId",
          "type": "bytes32"
        },
        {
          "indexed": true,
          "internalType": "contract IERC20",
          "name": "tokenIn",
          "type": "address"
        },
        {
          "indexed": true,
          "internalType": "contract IERC20",
          "name": "tokenOut",
          "type": "address"
        },
        {
          "indexed": false,
          "internalType": "uint256",
          "name": "amountIn",
          "type": "uint256"
        },
        {
          "indexed": false,
          "internalType": "uint256",
          "name": "amountOut",
          "type": "uint256"
        }
      ],
      "name": "Swap",
      "type": "event"
    },
    {
      "anonymous": false,
      "inputs": [
        {
          "indexed": true,
          "internalType": "bytes32",
          "name": "poolId",
          "type": "bytes32"
        },
        {
          "indexed": false,
          "internalType": "contract IERC20[]",
          "name": "tokens",
          "type": "address[]"
        }
      ],
      "name": "TokensDeregistered",
      "type": "event"
    },
    {
      "anonymous": false,
      "inputs": [
        {
          "indexed": true,
          "internalType": "bytes32",
          "name": "poolId",
          "type": "bytes32"
        },
        {
          "indexed": false,
          "internalType": "contract IERC20[]",
          "name": "tokens",
          "type": "address[]"
        },
        {
          "indexed": false,
          "internalType": "address[]",
          "name": "assetManagers",
          "type": "address[]"
        }
      ],
      "name": "TokensRegistered",
      "type": "event"
    },
    {
      "inputs": [],
      "name": "WETH",
      "outputs": [
        {
          "internalType": "contract IWETH",
          "name": "",
          "type": "address"
        }
      ],
      "stateMutability": "view",
      "type": "function"
    },
    {
      "inputs": [
        {
          "internalType": "enum IVault.SwapKind",
          "name": "kind",
          "type": "uint8"
        },
        {
          "components": [
            {
              "internalType": "bytes32",
              "name": "poolId",
              "type": "bytes32"
            },
            {
              "internalType": "uint256",
              "name": "assetInIndex",
              "type": "uint256"
            },
            {
              "internalType": "uint256",
              "name": "assetOutIndex",
              "type": "uint256"
            },
            {
              "internalType": "uint256",
              "name": "amount",
              "type": "uint256"
            },
            {
              "internalType": "bytes",
              "name": "userData",
              "type": "bytes"
            }
          ],
          "internalType": "struct IVault.BatchSwapStep[]",
          "name": "swaps",
          "type": "tuple[]"
        },
        {
          "internalType": "contract IAsset[]",
          "name": "assets",
          "type": "address[]"
        },
        {
          "components": [
            {
              "internalType": "address",
              "name": "sender",
              "type": "address"
            },
            {
              "internalType": "bool",
              "name": "fromInternalBalance",
              "type": "bool"
            },
            {
              "internalType": "address payable",
              "name": "recipient",
              "type": "address"
            },
            {
              "internalType": "bool",
              "name": "toInternalBalance",
              "type": "bool"
            }
          ],
          "internalType": "struct IVault.FundManagement",
          "name": "funds",
          "type": "tuple"
        },
        {
          "internalType": "int256[]",
          "name": "limits",
          "type": "int256[]"
        },
        {
          "internalType": "uint256",
          "name": "deadline",
          "type": "uint256"
        }
      ],
      "name": "batchSwap",
      "outputs": [
        {
          "internalType": "int256[]",
          "name": "assetDeltas",
          "type": "int256[]"
        }
      ],
      "stateMutability": "payable",
      "type": "function"
    },
    {
      "inputs": [
        {
          "internalType": "bytes32",
          "name": "poolId",
          "type": "bytes32"
        },
        {
          "internalType": "contract IERC20[]",
          "name": "tokens",
          "type": "address[]"
        }
      ],
      "name": "deregisterTokens",
      "outputs": [],
      "stateMutability": "nonpayable",
      "type": "function"
    },
    {
      "inputs": [
        {
          "internalType": "bytes32",
          "name": "poolId",
          "type": "bytes32"
        },
        {
          "internalType": "address",
          "name": "sender",
          "type": "address"
        },
        {
          "internalType": "address payable",
          "name": "recipient",
          "type": "address"
        },
        {
          "components": [
            {
              "internalType": "contract IAsset[]",
              "name": "assets",
              "type": "address[]"
            },
            {
              "internalType": "uint256[]",
              "name": "minAmountsOut",
              "type": "uint256[]"
            },
            {
              "internalType": "bytes",
              "name": "userData",
              "type": "bytes"
            },
            {
              "internalType": "bool",
              "name": "toInternalBalance",
              "type": "bool"
            }
          ],
          "internalType": "struct IVault.ExitPoolRequest",
          "name": "request",
          "type": "tuple"
        }
      ],
      "name": "exitPool",
      "outputs": [],
      "stateMutability": "nonpayable",
      "type": "function"
    },
    {
      "inputs": [
        {
          "internalType": "contract IFlashLoanRecipient",
          "name": "recipient",
          "type": "address"
        },
        {
          "internalType": "contract IERC20[]",
          "name": "tokens",
          "type": "address[]"
        },
        {
          "internalType": "uint256[]",
          "name": "amounts",
          "type": "uint256[]"
        },
        {
          "internalType": "bytes",
          "name": "userData",
          "type": "bytes"
        }
      ],
      "name": "flashLoan",
      "outputs": [],
      "stateMutability": "nonpayable",
      "type": "function"
    },
    {
      "inputs": [
        {
          "internalType": "bytes4",
          "name": "selector",
          "type": "bytes4"
        }
      ],
      "name": "getActionId",
      "outputs": [
        {
          "internalType": "bytes32",
          "name": "",
          "type": "bytes32"
        }
      ],
      "stateMutability": "view",
      "type": "function"
    },
    {
      "inputs": [],
      "name": "getAuthorizer",
      "outputs": [
        {
          "internalType": "contract IAuthorizer",
          "name": "",
          "type": "address"
        }
      ],
      "stateMutability": "view",
      "type": "function"
    },
    {
      "inputs": [],
      "name": "getDomainSeparator",
      "outputs": [
        {
          "internalType": "bytes32",
          "name": "",
          "type": "bytes32"
        }
      ],
      "stateMutability": "view",
      "type": "function"
    },
    {
      "inputs": [
        {
          "internalType": "address",
          "name": "user",
          "type": "address"
        },
        {
          "internalType": "contract IERC20[]",
          "name": "tokens",
          "type": "address[]"
        }
      ],
      "name": "getInternalBalance",
      "outputs": [
        {
          "internalType": "uint256[]",
          "name": "balances",
          "type": "uint256[]"
        }
      ],
      "stateMutability": "view",
      "type": "function"
    },
    {
      "inputs": [
        {
          "internalType": "address",
          "name": "user",
          "type": "address"
        }
      ],
      "name": "getNextNonce",
      "outputs": [
        {
          "internalType": "uint256",
          "name": "",
          "type": "uint256"
        }
      ],
      "stateMutability": "view",
      "type": "function"
    },
    {
      "inputs": [],
      "name": "getPausedState",
      "outputs": [
        {
          "internalType": "bool",
          "name": "paused",
          "type": "bool"
        },
        {
          "internalType": "uint256",
          "name": "pauseWindowEndTime",
          "type": "uint256"
        },
        {
          "internalType": "uint256",
          "name": "bufferPeriodEndTime",
          "type": "uint256"
        }
      ],
      "stateMutability": "view",
      "type": "function"
    },
    {
      "inputs": [
        {
          "internalType": "bytes32",
          "name": "poolId",
          "type": "bytes32"
        }
      ],
      "name": "getPool",
      "outputs": [
        {
          "internalType": "address",
          "name": "",
          "type": "address"
        },
        {
          "internalType": "enum IVault.PoolSpecialization",
          "name": "",
          "type": "uint8"
        }
      ],
      "stateMutability": "view",
      "type": "function"
    },
    {
      "inputs": [
        {
          "internalType": "bytes32",
          "name": "poolId",
          "type": "bytes32"
        },
        {
          "internalType": "contract IERC20",
          "name": "token",
          "type": "address"
        }
      ],
      "name": "getPoolTokenInfo",
      "outputs": [
        {
          "internalType": "uint256",
          "name": "cash",
          "type": "uint256"
        },
        {
          "internalType": "uint256",
          "name": "managed",
          "type": "uint256"
        },
        {
          "internalType": "uint256",
          "name": "lastChangeBlock",
          "type": "uint256"
        },
        {
          "internalType": "address",
          "name": "assetManager",
          "type": "address"
        }
      ],
      "stateMutability": "view",
      "type": "function"
    },
    {
      "inputs": [
        {
          "internalType": "bytes32",
          "name": "poolId",
          "type": "bytes32"
        }
      ],
      "name": "getPoolTokens",
      "outputs": [
        {
          "internalType": "contract IERC20[]",
          "name": "tokens",
          "type": "address[]"
        },
        {
          "internalType": "uint256[]",
          "name": "balances",
          "type": "uint256[]"
        },
        {
          "internalType": "uint256",
          "name": "lastChangeBlock",
          "type": "uint256"
        }
      ],
      "stateMutability": "view",
      "type": "function"
    },
    {
      "inputs": [],
      "name": "getProtocolFeesCollector",
      "outputs": [
        {
          "internalType": "contract IProtocolFeesCollector",
          "name": "",
          "type": "address"
        }
      ],
      "stateMutability": "view",
      "type": "function"
    },
    {
      "inputs": [
        {
          "internalType": "address",
          "name": "user",
          "type": "address"
        },
        {
          "internalType": "address",
          "name": "relayer",
          "type": "address"
        }
      ],
      "name": "hasApprovedRelayer",
      "outputs": [
        {
          "internalType": "bool",
          "name": "",
          "type": "bool"
        }
      ],
      "stateMutability": "view",
      "type": "function"
    },
    {
      "inputs": [
        {
          "internalType": "bytes32",
          "name": "poolId",
          "type": "bytes32"
        },
        {
          "internalType": "address",
          "name": "sender",
          "type": "address"
        },
        {
          "internalType": "address",
          "name": "recipient",
          "type": "address"
        },
        {
          "components": [
            {
              "internalType": "contract IAsset[]",
              "name": "assets",
              "type": "address[]"
            },
            {
              "internalType": "uint256[]",
              "name": "maxAmountsIn",
              "type": "uint256[]"
            },
            {
              "internalType": "bytes",
              "name": "userData",
              "type": "bytes"
            },
            {
              "internalType": "bool",
              "name": "fromInternalBalance",
              "type": "bool"
            }
          ],
          "internalType": "struct IVault.JoinPoolRequest",
          "name": "request",
          "type": "tuple"
        }
      ],
      "name": "joinPool",
      "outputs": [],
      "stateMutability": "payable",
      "type": "function"
    },
    {
      "inputs": [
        {
          "components": [
            {
              "internalType": "enum IVault.PoolBalanceOpKind",
              "name": "kind",
              "type": "uint8"
            },
            {
              "internalType": "bytes32",
              "name": "poolId",
              "type": "bytes32"
            },
            {
              "internalType": "contract IERC20",
              "name": "token",
              "type": "address"
            },
            {
              "internalType": "uint256",
              "name": "amount",
              "type": "uint256"
            }
          ],
          "internalType": "struct IVault.PoolBalanceOp[]",
          "name": "ops",
          "type": "tuple[]"
        }
      ],
      "name": "managePoolBalance",
      "outputs": [],
      "stateMutability": "nonpayable",
      "type": "function"
    },
    {
      "inputs": [
        {
          "components": [
            {
              "internalType": "enum IVault.UserBalanceOpKind",
              "name": "kind",
              "type": "uint8"
            },
            {
              "internalType": "contract IAsset",
              "name": "asset",
              "type": "address"
            },
            {
              "internalType": "uint256",
              "name": "amount",
              "type": "uint256"
            },
            {
              "internalType": "address",
              "name": "sender",
              "type": "address"
            },
            {
              "internalType": "address payable",
              "name": "recipient",
              "type": "address"
            }
          ],
          "internalType": "struct IVault.UserBalanceOp[]",
          "name": "ops",
          "type": "tuple[]"
        }
      ],
      "name": "manageUserBalance",
      "outputs": [],
      "stateMutability": "payable",
      "type": "function"
    },
    {
      "inputs": [
        {
          "internalType": "enum IVault.SwapKind",
          "name": "kind",
          "type": "uint8"
        },
        {
          "components": [
            {
              "internalType": "bytes32",
              "name": "poolId",
              "type": "bytes32"
            },
            {
              "internalType": "uint256",
              "name": "assetInIndex",
              "type": "uint256"
            },
            {
              "internalType": "uint256",
              "name": "assetOutIndex",
              "type": "uint256"
            },
            {
              "internalType": "uint256",
              "name": "amount",
              "type": "uint256"
            },
            {
              "internalType": "bytes",
              "name": "userData",
              "type": "bytes"
            }
          ],
          "internalType": "struct IVault.BatchSwapStep[]",
          "name": "swaps",
          "type": "tuple[]"
        },
        {
          "internalType": "contract IAsset[]",
          "name": "assets",
          "type": "address[]"
        },
        {
          "components": [
            {
              "internalType": "address",
              "name": "sender",
              "type": "address"
            },
            {
              "internalType": "bool",
              "name": "fromInternalBalance",
              "type": "bool"
            },
            {
              "internalType": "address payable",
              "name": "recipient",
              "type": "address"
            },
            {
              "internalType": "bool",
              "name": "toInternalBalance",
              "type": "bool"
            }
          ],
          "internalType": "struct IVault.FundManagement",
          "name": "funds",
          "type": "tuple"
        }
      ],
      "name": "queryBatchSwap",
      "outputs": [
        {
          "internalType": "int256[]",
          "name": "",
          "type": "int256[]"
        }
      ],
      "stateMutability": "view",
      "type": "function"
    },
    {
      "inputs": [
        {
          "internalType": "enum IVault.PoolSpecialization",
          "name": "specialization",
          "type": "uint8"
        }
      ],
      "name": "registerPool",
      "outputs": [
        {
          "internalType": "bytes32",
          "name": "",
          "type": "bytes32"
        }
      ],
      "stateMutability": "nonpayable",
      "type": "function"
    },
    {
      "inputs": [
        {
          "internalType": "bytes32",
          "name": "poolId",
          "type": "bytes32"
        },
        {
          "internalType": "contract IERC20[]",
          "name": "tokens",
          "type": "address[]"
        },
        {
          "internalType": "address[]",
          "name": "assetManagers",
          "type": "address[]"
        }
      ],
      "name": "registerTokens",
      "outputs": [],
      "stateMutability": "nonpayable",
      "type": "function"
    },
    {
      "inputs": [
        {
          "internalType": "contract IAuthorizer",
          "name": "newAuthorizer",
          "type": "address"
        }
      ],
      "name": "setAuthorizer",
      "outputs": [],
      "stateMutability": "nonpayable",
      "type": "function"
    },
    {
      "inputs": [
        {
          "internalType": "bool",
          "name": "paused",
          "type": "bool"
        }
      ],
      "name": "setPaused",
      "outputs": [],
      "stateMutability": "nonpayable",
      "type": "function"
    },
    {
      "inputs": [
        {
          "internalType": "address",
          "name": "sender",
          "type": "address"
        },
        {
          "internalType": "address",
          "name": "relayer",
          "type": "address"
        },
        {
          "internalType": "bool",
          "name": "approved",
          "type": "bool"
        }
      ],
      "name": "setRelayerApproval",
      "outputs": [],
      "stateMutability": "nonpayable",
      "type": "function"
    },
    {
      "inputs": [
        {
          "components": [
            {
              "internalType": "bytes32",
              "name": "poolId",
              "type": "bytes32"
            },
            {
              "internalType": "enum IVault.SwapKind",
              "name": "kind",
              "type": "uint8"
            },
            {
              "internalType": "contract IAsset",
              "name": "assetIn",
              "type": "address"
            },
            {
              "internalType": "contract IAsset",
              "name": "assetOut",
              "type": "address"
            },
            {
              "internalType": "uint256",
              "name": "amount",
              "type": "uint256"
            },
            {
              "internalType": "bytes",
              "name": "userData",
              "type": "bytes"
            }
          ],
          "internalType": "struct IVault.SingleSwap",
          "name": "singleSwap",
          "type": "tuple"
        },
        {
          "components": [
            {
              "internalType": "address",
              "name": "sender",
              "type": "address"
            },
            {
              "internalType": "bool",
              "name": "fromInternalBalance",
              "type": "bool"
            },
            {
              "internalType": "address payable",
              "name": "recipient",
              "type": "address"
            },
            {
              "internalType": "bool",
              "name": "toInternalBalance",
              "type": "bool"
            }
          ],
          "internalType": "struct IVault.FundManagement",
          "name": "funds",
          "type": "tuple"
        },
        {
          "internalType": "uint256",
          "name": "limit",
          "type": "uint256"
        },
        {
          "internalType": "uint256",
          "name": "deadline",
          "type": "uint256"
        }
      ],
      "name": "swap",
      "outputs": [
        {
          "internalType": "uint256",
          "name": "amountCalculated",
          "type": "uint256"
        }
      ],
      "stateMutability": "payable",
      "type": "function"
    },
    {
      "stateMutability": "payable",
      "type": "receive"
    }
  ],
  "bytecode": "0x6101806040523480156200001257600080fd5b5060405162006ff738038062006ff7833981016040819052620000359162000253565b8382826040518060400160405280601181526020017010985b185b98d95c88158c8815985d5b1d607a1b81525080604051806040016040528060018152602001603160f81b815250306001600160a01b031660001b89806001600160a01b03166080816001600160a01b031660601b815250505030604051620000b89062000245565b620000c491906200029f565b604051809103906000f080158015620000e1573d6000803e3d6000fd5b5060601b6001600160601b03191660a052600160005560c052815160209283012060e052805191012061010052507f8b73c3c69bb8fe3d512ecc4cf759cc79239f7b179b0ffacaa9a75d522b39400f61012052620001486276a70083111561019462000181565b6200015c62278d0082111561019562000181565b429091016101408190520161016052620001768162000196565b5050505050620002cc565b8162000192576200019281620001f2565b5050565b6040516001600160a01b038216907f94b979b6831a51293e2641426f97747feed46f17779fed9cd18d1ecefcfe92ef90600090a2600380546001600160a01b0390921661010002610100600160a81b0319909216919091179055565b62461bcd60e51b6000908152602060045260076024526642414c23000030600a808404818106603090810160081b95839006959095019082900491820690940160101b939093010160c81b604452606490fd5b610ba5806200645283390190565b6000806000806080858703121562000269578384fd5b84516200027681620002b3565b60208601519094506200028981620002b3565b6040860151606090960151949790965092505050565b6001600160a01b0391909116815260200190565b6001600160a01b0381168114620002c957600080fd5b50565b60805160601c60a05160601c60c05160e051610100516101205161014051610160516161226200033060003980611b3a525080611b165250806129015250806129435250806129225250806110ff5250806113d052508061052852506161226000f3fe6080604052600436106101a55760003560e01c8063945bcec9116100e1578063e6c460921161008a578063f84d066e11610064578063f84d066e1461048a578063f94d4668146104aa578063fa6e671d146104d9578063fec90d72146104f9576101d3565b8063e6c4609214610427578063ed24911d14610447578063f6c009271461045c576101d3565b8063b05f8e48116100bb578063b05f8e48146103cf578063b95cac28146103ff578063d2946c2b14610412576101d3565b8063945bcec914610385578063aaabadc514610398578063ad5c4648146103ba576101d3565b806352bbbe291161014e5780637d3aeb96116101285780637d3aeb9614610305578063851c1bb3146103255780638bdb39131461034557806390193b7c14610365576101d3565b806352bbbe29146102b25780635c38449e146102c557806366a9c7d2146102e5576101d3565b80630f5a6efa1161017f5780630f5a6efa1461024157806316c38b3c1461026e5780631c0de0511461028e576101d3565b8063058a628f146101d857806309b2760f146101f85780630e8e3e841461022e576101d3565b366101d3576101d16101b5610526565b6001600160a01b0316336001600160a01b03161461020661054b565b005b600080fd5b3480156101e457600080fd5b506101d16101f3366004615398565b61055d565b34801561020457600080fd5b5061021861021336600461596d565b610581565b6040516102259190615f56565b60405180910390f35b6101d161023c366004615575565b610634565b34801561024d57600080fd5b5061026161025c366004615436565b610770565b6040516102259190615f20565b34801561027a57600080fd5b506101d16102893660046156cb565b610806565b34801561029a57600080fd5b506102a361081f565b60405161022593929190615f3e565b6102186102c0366004615b14565b610848565b3480156102d157600080fd5b506101d16102e03660046158e2565b6109e9565b3480156102f157600080fd5b506101d16103003660046157b4565b610e06565b34801561031157600080fd5b506101d1610320366004615785565b610fa5565b34801561033157600080fd5b506102186103403660046158a2565b6110f9565b34801561035157600080fd5b506101d161036036600461571b565b61116a565b34801561037157600080fd5b50610218610380366004615398565b611180565b610261610393366004615a0c565b61119b565b3480156103a457600080fd5b506103ad6112cf565b6040516102259190615db5565b3480156103c657600080fd5b506103ad6112e3565b3480156103db57600080fd5b506103ef6103ea36600461587e565b6112f2565b6040516102259493929190616056565b6101d161040d36600461571b565b6113b5565b34801561041e57600080fd5b506103ad6113ce565b34801561043357600080fd5b506101d1610442366004615484565b6113f2565b34801561045357600080fd5b5061021861150e565b34801561046857600080fd5b5061047c610477366004615703565b611518565b604051610225929190615dc9565b34801561049657600080fd5b506102616104a5366004615989565b611542565b3480156104b657600080fd5b506104ca6104c5366004615703565b611657565b60405161022593929190615eea565b3480156104e557600080fd5b506101d16104f43660046153ec565b61168b565b34801561050557600080fd5b506105196105143660046153b4565b61171d565b6040516102259190615f33565b7f00000000000000000000000000000000000000000000000000000000000000005b90565b816105595761055981611732565b5050565b61056561179f565b61056d6117b8565b610576816117fe565b61057e611871565b50565b600061058b61179f565b610593611878565b60006105a2338460065461188d565b6000818152600560205260409020549091506105c49060ff16156101f461054b565b60008181526005602052604090819020805460ff1916600190811790915560068054909101905551339082907f3c13bc30b8e878c53fd2a36b679409c073afd75950be43d8858768e956fbc20e9061061d908790615fdc565b60405180910390a3905061062f611871565b919050565b61063c61179f565b6000806000805b845181101561075b5760008060008060006106718a878151811061066357fe5b6020026020010151896118cc565b9c50939850919650945092509050600185600381111561068d57fe5b14156106a45761069f84838386611944565b61074a565b866106b6576106b1611878565b600196505b60008560038111156106c457fe5b14156106f5576106d684838386611967565b6106df84611987565b1561069f576106ee8984611994565b985061074a565b61070a61070185611987565b1561020761054b565b600061071585610548565b9050600286600381111561072557fe5b141561073c57610737818484876119a6565b610748565b610748818484876119bf565b505b505060019093019250610643915050565b5061076583611a2d565b50505061057e611871565b6060815167ffffffffffffffff8111801561078a57600080fd5b506040519080825280602002602001820160405280156107b4578160200160208202803683370190505b50905060005b82518110156107ff576107e0848483815181106107d357fe5b6020026020010151611a50565b8282815181106107ec57fe5b60209081029190910101526001016107ba565b5092915050565b61080e61179f565b6108166117b8565b61057681611a7b565b600080600061082c611af7565b159250610837611b14565b9150610841611b38565b9050909192565b600061085261179f565b61085a611878565b835161086581611b5c565b610874834211156101fc61054b565b61088760008760800151116101fe61054b565b60006108968760400151611b8e565b905060006108a78860600151611b8e565b90506108ca816001600160a01b0316836001600160a01b031614156101fd61054b565b6108d2614eb5565b885160808201526020890151819060018111156108eb57fe5b908160018111156108f857fe5b9052506001600160a01b03808416602083015282811660408084019190915260808b0151606084015260a08b01516101008401528951821660c08401528901511660e082015260008061094a83611bb3565b9198509250905061098160008c60200151600181111561096657fe5b146109745789831115610979565b898210155b6101fb61054b565b6109998b60400151838c600001518d60200151611ca7565b6109b18b60600151828c604001518d60600151611d85565b6109d36109c18c60400151611987565b6109cc5760006109ce565b825b611a2d565b5050505050506109e1611871565b949350505050565b6109f161179f565b6109f9611878565b610a0583518351611e5f565b6000835167ffffffffffffffff81118015610a1f57600080fd5b50604051908082528060200260200182016040528015610a49578160200160208202803683370190505b5090506000845167ffffffffffffffff81118015610a6657600080fd5b50604051908082528060200260200182016040528015610a90578160200160208202803683370190505b5090506000805b8651811015610c09576000878281518110610aae57fe5b602002602001015190506000878381518110610ac657fe5b60200260200101519050610b11846001600160a01b0316836001600160a01b03161160006001600160a01b0316846001600160a01b031614610b09576066610b0c565b60685b61054b565b819350816001600160a01b03166370a08231306040518263ffffffff1660e01b8152600401610b409190615db5565b60206040518083038186803b158015610b5857600080fd5b505afa158015610b6c573d6000803e3d6000fd5b505050506040513d601f19601f82011682018060405250810190610b909190615bf7565b858481518110610b9c57fe5b602002602001018181525050610bb181611e6c565b868481518110610bbd57fe5b602002602001018181525050610beb81868581518110610bd957fe5b6020026020010151101561021061054b565b610bff6001600160a01b0383168b83611ef3565b5050600101610a97565b506040517ff04f27070000000000000000000000000000000000000000000000000000000081526001600160a01b0388169063f04f270790610c55908990899088908a90600401615e9d565b600060405180830381600087803b158015610c6f57600080fd5b505af1158015610c83573d6000803e3d6000fd5b5050505060005b8651811015610df4576000878281518110610ca157fe5b602002602001015190506000848381518110610cb957fe5b602002602001015190506000826001600160a01b03166370a08231306040518263ffffffff1660e01b8152600401610cf19190615db5565b60206040518083038186803b158015610d0957600080fd5b505afa158015610d1d573d6000803e3d6000fd5b505050506040513d601f19601f82011682018060405250810190610d419190615bf7565b9050610d528282101561020361054b565b60008282039050610d7b888681518110610d6857fe5b602002602001015182101561025a61054b565b610d858482611f73565b836001600160a01b03168c6001600160a01b03167f0d7d75e01ab95780d3cd1c8ec0dd6c2ce19e3a20427eec8bf53283b6fb8e95f08c8881518110610dc657fe5b602002602001015184604051610ddd929190615fea565b60405180910390a350505050806001019050610c8a565b50505050610e00611871565b50505050565b610e0e61179f565b610e16611878565b82610e2081611f95565b610e2c83518351611e5f565b60005b8351811015610eca576000848281518110610e4657fe5b60200260200101519050610e7260006001600160a01b0316826001600160a01b0316141561013561054b565b838281518110610e7e57fe5b6020908102919091018101516000888152600a835260408082206001600160a01b0395861683529093529190912080546001600160a01b03191692909116919091179055600101610e2f565b506000610ed685611fc6565b90506002816002811115610ee657fe5b1415610f3457610efc845160021461020c61054b565b610f2f8585600081518110610f0d57fe5b602002602001015186600181518110610f2257fe5b6020026020010151611fe0565b610f5c565b6001816002811115610f4257fe5b1415610f5257610f2f858561208c565b610f5c85856120e4565b847ff5847d3f2197b16cdcd2098ec95d0905cd1abdaf415f07bb7cef2bba8ac5dec48585604051610f8e929190615e12565b60405180910390a25050610fa0611871565b505050565b610fad61179f565b610fb5611878565b81610fbf81611f95565b6000610fca84611fc6565b90506002816002811115610fda57fe5b141561102857610ff0835160021461020c61054b565b611023848460008151811061100157fe5b60200260200101518560018151811061101657fe5b6020026020010151612139565b611050565b600181600281111561103657fe5b14156110465761102384846121a7565b6110508484612261565b60005b83518110156110b657600a6000868152602001908152602001600020600085838151811061107d57fe5b6020908102919091018101516001600160a01b0316825281019190915260400160002080546001600160a01b0319169055600101611053565b50837f7dcdc6d02ef40c7c1a7046a011b058bd7f988fa14e20a66344f9d4e60657d610846040516110e79190615dff565b60405180910390a25050610559611871565b604080517f00000000000000000000000000000000000000000000000000000000000000006020808301919091527fffffffff000000000000000000000000000000000000000000000000000000008416828401528251602481840301815260449092019092528051910120919050565b610e00600185858561117b866122c4565b6122d0565b6001600160a01b031660009081526002602052604090205490565b60606111a561179f565b6111ad611878565b83516111b881611b5c565b6111c7834211156101fc61054b565b6111d386518551611e5f565b6111df8787878b612456565b91506000805b87518110156112b15760008882815181106111fc57fe5b60200260200101519050600085838151811061121457fe5b6020026020010151905061124088848151811061122d57fe5b60200260200101518213156101fb61054b565b600081131561128057885160208a0151829161125f9185918491611ca7565b61126883611987565b1561127a576112778582611994565b94505b506112a7565b60008112156112a75760008160000390506112a583828c604001518d60600151611d85565b505b50506001016111e5565b506112bb81611a2d565b50506112c5611871565b9695505050505050565b60035461010090046001600160a01b031690565b60006112ed610526565b905090565b60008060008085611302816126e5565b60008061130e89611fc6565b9050600281600281111561131e57fe5b14156113355761132e8989612703565b9150611360565b600181600281111561134357fe5b14156113535761132e898961277d565b61135d89896127eb565b91505b61136982612803565b965061137482612816565b955061137f8261282c565b6000998a52600a60209081526040808c206001600160a01b039b8c168d5290915290992054969995989796909616955050505050565b6113bd611878565b610e00600085858561117b866122c4565b7f000000000000000000000000000000000000000000000000000000000000000090565b6113fa61179f565b611402611878565b61140a614f05565b60005b82518110156115045782818151811061142257fe5b6020026020010151915060008260200151905061143e816126e5565b60408301516114586114508383612832565b61020961054b565b6000828152600a602090815260408083206001600160a01b03858116855292529091205461148b911633146101f661054b565b835160608501516000806114a18487878661288e565b91509150846001600160a01b0316336001600160a01b0316877f6edcaf6241105b4c94c2efdbf3a6b12458eb3d07be3a0e81d24b13c44045fe7a85856040516114eb929190615fea565b60405180910390a450505050505080600101905061140d565b505061057e611871565b60006112ed6128fd565b60008082611525816126e5565b61152e846129bb565b61153785611fc6565b925092505b50915091565b606033301461162d576000306001600160a01b0316600036604051611568929190615d7e565b6000604051808303816000865af19150503d80600081146115a5576040519150601f19603f3d011682016040523d82523d6000602084013e6115aa565b606091505b5050905080600081146115b957fe5b60046000803e6000517fffffffff00000000000000000000000000000000000000000000000000000000167ffa61cc12000000000000000000000000000000000000000000000000000000008114611615573d6000803e3d6000fd5b50602060005260043d0380600460203e602081016000f35b600061163b85858589612456565b9050602081510263fa61cc126020830352600482036024820181fd5b606080600083611666816126e5565b6060611671866129c1565b909550905061167f81612a23565b95979096509350505050565b61169361179f565b61169b611878565b826116a581611b5c565b6001600160a01b0384811660008181526004602090815260408083209488168084529490915290819020805460ff1916861515179055519091907f46961fdb4502b646d5095fba7600486a8ac05041d55cdf0f16ed677180b5cad89061170c908690615f33565b60405180910390a350610fa0611871565b60006117298383612ad2565b90505b92915050565b7f08c379a0000000000000000000000000000000000000000000000000000000006000908152602060045260076024526642414c23000030600a808404818106603090810160081b95839006959095019082900491820690940160101b939093010160c81b604452606490fd5b6117b16002600054141561019061054b565b6002600055565b60006117e76000357fffffffff00000000000000000000000000000000000000000000000000000000166110f9565b905061057e6117f68233612b00565b61019161054b565b6040516001600160a01b038216907f94b979b6831a51293e2641426f97747feed46f17779fed9cd18d1ecefcfe92ef90600090a2600380546001600160a01b03909216610100027fffffffffffffffffffffff0000000000000000000000000000000000000000ff909216919091179055565b6001600055565b61188b611883611af7565b61019261054b565b565b600069ffffffffffffffffffff821660508460028111156118aa57fe5b901b17606085901b6bffffffffffffffffffffffff19161790505b9392505050565b600080600080600080600088606001519050336001600160a01b0316816001600160a01b03161461191e5787611909576119046117b8565b600197505b61191e6119168233612ad2565b6101f761054b565b885160208a015160408b01516080909b0151919b909a9992985090965090945092505050565b6119598361195186611b8e565b836000612ba3565b50610e008482846000611d85565b61197a8261197486611b8e565b83612bf9565b610e008482856000611ca7565b6001600160a01b03161590565b6000828201611729848210158361054b565b6119b38385836000612ba3565b50610e00828583612bf9565b8015610e00576119da6001600160a01b038516848484612c29565b826001600160a01b0316846001600160a01b03167f540a1a3f28340caec336c81d8d7b3df139ee5cdc1839a4f283d7ebb7eaae2d5c8484604051611a1f929190615de6565b60405180910390a350505050565b611a3c8134101561020461054b565b348190038015610559576105593382612cb1565b6001600160a01b039182166000908152600b6020908152604080832093909416825291909152205490565b8015611a9b57611a96611a8c611b14565b421061019361054b565b611ab0565b611ab0611aa6611b38565b42106101a961054b565b6003805482151560ff19909116811790915560408051918252517f9e3a5e37224532dea67b89face185703738a228a6e8a23dee546960180d3be649181900360200190a150565b6000611b01611b38565b4211806112ed57505060035460ff161590565b7f000000000000000000000000000000000000000000000000000000000000000090565b7f000000000000000000000000000000000000000000000000000000000000000090565b336001600160a01b0382161461057e57611b746117b8565b611b7e8133612ad2565b61057e5761057e816101f7612d20565b6000611b9982611987565b611bab57611ba682610548565b61172c565b61172c610526565b600080600080611bc685608001516129bb565b90506000611bd78660800151611fc6565b90506002816002811115611be757fe5b1415611bfe57611bf78683612d54565b9450611c29565b6001816002811115611c0c57fe5b1415611c1c57611bf78683612e04565b611c268683612e97565b94505b611c3c86600001518760600151876130d6565b809450819550505085604001516001600160a01b031686602001516001600160a01b031687608001517f2170c741c41531aec20e7c107c24eecfdd15e69c9bb0a8dd37b1840b9e0b207b8787604051611c96929190615fea565b60405180910390a450509193909250565b82611cb157610e00565b611cba84611987565b15611d3b57611ccc811561020261054b565b611cdb8347101561020461054b565b611ce3610526565b6001600160a01b031663d0e30db0846040518263ffffffff1660e01b81526004016000604051808303818588803b158015611d1d57600080fd5b505af1158015611d31573d6000803e3d6000fd5b5050505050610e00565b6000611d4685610548565b90508115611d63576000611d5d8483876001612ba3565b90940393505b8315611d7e57611d7e6001600160a01b038216843087612c29565b5050505050565b82611d8f57610e00565b611d9884611987565b15611e2857611daa811561020261054b565b611db2610526565b6001600160a01b0316632e1a7d4d846040518263ffffffff1660e01b8152600401611ddd9190615f56565b600060405180830381600087803b158015611df757600080fd5b505af1158015611e0b573d6000803e3d6000fd5b50611e23925050506001600160a01b03831684612cb1565b610e00565b6000611e3385610548565b90508115611e4b57611e46838286612bf9565b611d7e565b611d7e6001600160a01b0382168486611ef3565b610559818314606761054b565b600080611e776113ce565b6001600160a01b031663d877845c6040518163ffffffff1660e01b815260040160206040518083038186803b158015611eaf57600080fd5b505afa158015611ec3573d6000803e3d6000fd5b505050506040513d601f19601f82011682018060405250810190611ee79190615bf7565b90506118c58382613104565b604080516001600160a01b038416602482015260448082018490528251808303909101815260649091019091526020810180517bffffffffffffffffffffffffffffffffffffffffffffffffffffffff167fa9059cbb00000000000000000000000000000000000000000000000000000000179052610fa0908490613151565b801561055957610559611f846113ce565b6001600160a01b0384169083611ef3565b611f9e816126e5565b61057e611faa826129bb565b6001600160a01b0316336001600160a01b0316146101f561054b565b600061ffff605083901c1661172c600382106101f461054b565b612001816001600160a01b0316836001600160a01b0316141561020a61054b565b612020816001600160a01b0316836001600160a01b031610606661054b565b6000838152600960205260409020805461205d906001600160a01b0316158015612055575060018201546001600160a01b0316155b61020b61054b565b80546001600160a01b039384166001600160a01b03199182161782556001909101805492909316911617905550565b6000828152600860205260408120905b8251811015610e005760006120cd8483815181106120b657fe5b60200260200101518461323b90919063ffffffff16565b90506120db8161020a61054b565b5060010161209c565b6000828152600160205260408120905b8251811015610e0057600061212284838151811061210e57fe5b60209081029190910101518490600061329e565b90506121308161020a61054b565b506001016120f4565b600080600061214986868661334b565b92509250925061217361215b84613412565b801561216b575061216b83613412565b61020d61054b565b600095865260096020526040862080546001600160a01b031990811682556001909101805490911690559490945550505050565b6000828152600860205260408120905b8251811015610e005760008382815181106121ce57fe5b6020026020010151905061221a61216b600760008881526020019081526020016000206000846001600160a01b03166001600160a01b0316815260200190815260200160002054613412565b60008581526007602090815260408083206001600160a01b038516845290915281208190556122498483613434565b90506122578161020961054b565b50506001016121b7565b6000828152600160205260408120905b8251811015610e0057600083828151811061228857fe5b60200260200101519050600061229e8483613542565b90506122ac61216b82613412565b6122b68483613551565b505050806001019050612271565b6122cc614f2e565b5090565b6122d861179f565b836122e2816126e5565b836122ec81611b5c565b612300836000015151846020015151611e5f565b600061230f8460000151613623565b9050600061231d88836136b3565b905060008060006123328c8c8c8c8c89613744565b92509250925060006123438c611fc6565b9050600281600281111561235357fe5b14156123bb576123b68c8760008151811061236a57fe5b60200260200101518660008151811061237f57fe5b60200260200101518960018151811061239457fe5b6020026020010151886001815181106123a957fe5b6020026020010151613909565b6123e4565b60018160028111156123c957fe5b14156123da576123b68c8786613948565b6123e48c856139b5565b6000808e60018111156123f357fe5b1490508b6001600160a01b03168d7fe5ce249087ce04f05a957192435400fd97868dba0e6a4b4c049abf8af80dae788961242d88866139fe565b8760405161243d93929190615e64565b60405180910390a3505050505050505050611d7e611871565b6060835167ffffffffffffffff8111801561247057600080fd5b5060405190808252806020026020018201604052801561249a578160200160208202803683370190505b5090506124a5614f58565b6124ad614eb5565b60008060005b89518110156126d8578981815181106124c857fe5b602002602001015194506000895186602001511080156124ec575089518660400151105b90506124f981606461054b565b600061251b8b88602001518151811061250e57fe5b6020026020010151611b8e565b905060006125328c89604001518151811061250e57fe5b9050612555816001600160a01b0316836001600160a01b031614156101fd61054b565b60608801516125a55761256d600085116101fe61054b565b600061257a8b8484613aa6565b6001600160a01b0316876001600160a01b031614905061259c816101ff61054b565b50606088018590525b87516080880152868a60018111156125b957fe5b908160018111156125c657fe5b9052506001600160a01b0380831660208901528181166040808a01919091526060808b0151908a015260808a01516101008a01528c51821660c08a01528c01511660e088015260008061261889611bb3565b9198509250905061262a8c8585613ac8565b975061265e61263883613ae2565b8c8c602001518151811061264857fe5b6020026020010151613b1290919063ffffffff16565b8b8b602001518151811061266e57fe5b6020026020010181815250506126ac61268682613ae2565b8c8c604001518151811061269657fe5b6020026020010151613b4690919063ffffffff16565b8b8b60400151815181106126bc57fe5b60200260200101818152505050505050508060010190506124b3565b5050505050949350505050565b60008181526005602052604090205461057e9060ff166101f461054b565b600080600080600061271487613b7a565b945094509450945050836001600160a01b0316866001600160a01b03161415612743578294505050505061172c565b816001600160a01b0316866001600160a01b0316141561276857935061172c92505050565b612773610209611732565b5050505092915050565b60008281526007602090815260408083206001600160a01b0385168452909152812054816127aa82613bf0565b806127c8575060008581526008602052604090206127c89085613c02565b9050806127e3576127d8856126e5565b6127e3610209611732565b509392505050565b60008281526001602052604081206109e18184613542565b6dffffffffffffffffffffffffffff1690565b60701c6dffffffffffffffffffffffffffff1690565b60e01c90565b60008061283e84611fc6565b9050600281600281111561284e57fe5b14156128665761285e8484613c23565b91505061172c565b600181600281111561287457fe5b14156128845761285e8484613c74565b61285e8484613c8c565b600080600061289c86611fc6565b905060008760028111156128ac57fe5b14156128c8576128be86828787613ca4565b92509250506128f4565b60018760028111156128d657fe5b14156128e8576128be86828787613d1f565b6128be86828787613d9b565b94509492505050565b60007f00000000000000000000000000000000000000000000000000000000000000007f00000000000000000000000000000000000000000000000000000000000000007f000000000000000000000000000000000000000000000000000000000000000061296a613dfe565b3060405160200180868152602001858152602001848152602001838152602001826001600160a01b031681526020019550505050505060405160208183030381529060405280519060200120905090565b60601c90565b60608060006129cf84611fc6565b905060028160028111156129df57fe5b14156129f8576129ee84613e02565b9250925050612a1e565b6001816002811115612a0657fe5b1415612a15576129ee84613f37565b6129ee8461405e565b915091565b60606000825167ffffffffffffffff81118015612a3f57600080fd5b50604051908082528060200260200182016040528015612a69578160200160208202803683370190505b5091506000905060005b825181101561153c576000848281518110612a8a57fe5b60200260200101519050612a9d8161415a565b848381518110612aa957fe5b602002602001018181525050612ac783612ac28361282c565b614175565b925050600101612a73565b6001600160a01b03918216600090815260046020908152604080832093909416825291909152205460ff1690565b6003546040517f9be2a88400000000000000000000000000000000000000000000000000000000815260009161010090046001600160a01b031690639be2a88490612b5390869086903090600401615f5f565b60206040518083038186803b158015612b6b57600080fd5b505afa158015612b7f573d6000803e3d6000fd5b505050506040513d601f19601f8201168201806040525081019061172991906156e7565b600080612bb08686611a50565b9050612bc98380612bc15750848210155b61020161054b565b612bd3818561418c565b9150818103612bef878783612be787613ae2565b60000361419b565b5050949350505050565b6000612c058484611a50565b90506000612c138284611994565b9050611d7e858583612c2487613ae2565b61419b565b604080516001600160a01b0380861660248301528416604482015260648082018490528251808303909101815260849091019091526020810180517bffffffffffffffffffffffffffffffffffffffffffffffffffffffff167f23b872dd00000000000000000000000000000000000000000000000000000000179052610e00908590613151565b612cc0814710156101a361054b565b6040516000906001600160a01b0384169083908381818185875af1925050503d8060008114612d0b576040519150601f19603f3d011682016040523d82523d6000602084013e612d10565b606091505b50509050610fa0816101a461054b565b6001600160a01b0382166000908152600260205260409020805460018101909155610fa0612d4e84836141f6565b8361054b565b600080600080612d7186608001518760200151886040015161334b565b92509250925060008087604001516001600160a01b031688602001516001600160a01b03161015612da6575083905082612dac565b50829050835b612db888888484614344565b60408b015160208c01519199509294509092506001600160a01b03918216911610612dec57612de7818361445a565b612df6565b612df6828261445a565b909255509295945050505050565b600080612e198460800151856020015161277d565b90506000612e2f8560800151866040015161277d565b9050612e3d85858484614344565b6080880180516000908152600760208181526040808420828e01516001600160a01b03908116865290835281852098909855935183529081528282209a830151909516815298909352919096209590955550929392505050565b60808201516000908152600160209081526040822090840151829182918290612ec1908390614495565b90506000612edc88604001518461449590919063ffffffff16565b9050811580612ee9575080155b15612f0657612efb88608001516126e5565b612f06610209611732565b60001991820191016000612f19846144b4565b905060008167ffffffffffffffff81118015612f3457600080fd5b50604051908082528060200260200182016040528015612f5e578160200160208202803683370190505b50600060a08c018190529091505b82811015612fde576000612f8087836144b8565b9050612f8b8161415a565b838381518110612f9757fe5b602002602001018181525050612fb48c60a00151612ac28361282c565b60a08d015281861415612fc957809850612fd5565b84821415612fd5578097505b50600101612f6c565b506040517f01ec954a0000000000000000000000000000000000000000000000000000000081526001600160a01b038a16906301ec954a9061302a908d90859089908990600401615ff8565b602060405180830381600087803b15801561304457600080fd5b505af1158015613058573d6000803e3d6000fd5b505050506040513d601f19601f8201168201806040525081019061307c9190615bf7565b97506000806130948c600001518d606001518c6130d6565b90925090506130a389836144ce565b98506130af88826144ff565b97506130bc87878b614515565b6130c787868a614515565b50505050505050505092915050565b600080808560018111156130e657fe5b14156130f65750829050816130fc565b50819050825b935093915050565b600082820261312884158061312157508385838161311e57fe5b04145b600361054b565b8061313757600091505061172c565b670de0b6b3a764000060001982010460010191505061172c565b600080836001600160a01b0316836040518082805190602001908083835b6020831061318e5780518252601f19909201916020918201910161316f565b6001836020036101000a0380198251168184511680821785525050505050509050019150506000604051808303816000865af19150503d80600081146131f0576040519150601f19603f3d011682016040523d82523d6000602084013e6131f5565b606091505b5091509150600082141561320d573d6000803e3d6000fd5b610e00815160001480613233575081806020019051602081101561323057600080fd5b50515b6101a261054b565b60006132478383613c02565b61329657508154600180820184556000848152602080822090930180546001600160a01b0319166001600160a01b0386169081179091558554908252828601909352604090209190915561172c565b50600061172c565b6001600160a01b03821660009081526002840160205260408120548061332b57505082546040805180820182526001600160a01b03858116808352602080840187815260008781526001808c018452878220965187546001600160a01b031916961695909517865590519484019490945594820180895590835260028801909452919020919091556118c5565b6000190160009081526001808601602052604082200183905590506118c5565b600080600080600061335d878761452d565b91509150600061336d838361455e565b60008a8152600960209081526040808320848452600201909152812080546001820154919750929350906133a083613bf0565b806133af57506133af82613bf0565b806133d057506133bf8c87613c23565b80156133d057506133d08c86613c23565b9050806133eb576133e08c6126e5565b6133eb610209611732565b6133f58383614591565b985061340183836145b6565b975050505050505093509350939050565b7bffffffffffffffffffffffffffffffffffffffffffffffffffffffff161590565b6001600160a01b0381166000908152600183016020526040812054801561353857835460001980830191018082146134e057600086600001828154811061347757fe5b60009182526020909120015487546001600160a01b03909116915081908890859081106134a057fe5b600091825260208083209190910180546001600160a01b0319166001600160a01b0394851617905592909116815260018881019092526040902090830190555b85548690806134eb57fe5b60008281526020808220830160001990810180546001600160a01b03191690559092019092556001600160a01b038716825260018881019091526040822091909155935061172c92505050565b600091505061172c565b600061172983836102096145cd565b6001600160a01b0381166000908152600283016020526040812054801561353857835460001980830191018082146135d9576000818152600180880160209081526040808420868552818520815481546001600160a01b0319166001600160a01b039182161782558286015491860191909155905416845260028a0190915290912090830190555b600081815260018088016020908152604080842080546001600160a01b031916815583018490559389556001600160a01b038816835260028901905291812055925061172c915050565b60606000825167ffffffffffffffff8111801561363f57600080fd5b50604051908082528060200260200182016040528015613669578160200160208202803683370190505b50905060005b83518110156107ff5761368784828151811061250e57fe5b82828151811061369357fe5b6001600160a01b039092166020928302919091019091015260010161366f565b60606000806136c1856129c1565b915091506136d182518551611e5f565b6136e1600083511161020f61054b565b60005b825181101561373b576137338582815181106136fc57fe5b60200260200101516001600160a01b031684838151811061371957fe5b60200260200101516001600160a01b03161461020861054b565b6001016136e4565b50949350505050565b606080606060008061375586612a23565b9150915060006137648b6129bb565b905060008c600181111561377457fe5b1461381757806001600160a01b03166374f3b0098c8c8c878761379561460a565b8f604001516040518863ffffffff1660e01b81526004016137bc9796959493929190615f7e565b600060405180830381600087803b1580156137d657600080fd5b505af11580156137ea573d6000803e3d6000fd5b505050506040513d6000823e601f3d908101601f191682016040526138129190810190615674565b6138b0565b806001600160a01b031663d5c096c48c8c8c878761383361460a565b8f604001516040518863ffffffff1660e01b815260040161385a9796959493929190615f7e565b600060405180830381600087803b15801561387457600080fd5b505af1158015613888573d6000803e3d6000fd5b505050506040513d6000823e601f3d908101601f191682016040526138b09190810190615674565b80955081965050506138c6875186518651614684565b60008c60018111156138d457fe5b146138eb576138e6898989888861469c565b6138f8565b6138f88a898988886147e3565b955050505096509650969350505050565b6000613915858461455e565b6000878152600960209081526040808320848452600201909152902090915061393e858461445a565b9055505050505050565b60005b8251811015610e005781818151811061396057fe5b602002602001015160076000868152602001908152602001600020600085848151811061398957fe5b6020908102919091018101516001600160a01b031682528101919091526040016000205560010161394b565b6000828152600160205260408120905b8251811015610e00576139f6818483815181106139de57fe5b6020026020010151846145159092919063ffffffff16565b6001016139c5565b6060825167ffffffffffffffff81118015613a1857600080fd5b50604051908082528060200260200182016040528015613a42578160200160208202803683370190505b50905060005b83518110156107ff5782613a7257838181518110613a6257fe5b6020026020010151600003613a87565b838181518110613a7e57fe5b60200260200101515b828281518110613a9357fe5b6020908102919091010152600101613a48565b600080846001811115613ab557fe5b14613ac057816109e1565b509092915050565b600080846001811115613ad757fe5b146107ff57826109e1565b60006122cc7f800000000000000000000000000000000000000000000000000000000000000083106101a561054b565b6000828201611729828412801590613b2a5750848212155b80613b3f5750600084128015613b3f57508482125b600061054b565b6000818303611729828412801590613b5e5750848213155b80613b735750600084128015613b7357508482135b600161054b565b6000818152600960205260408120805460018201546001600160a01b0391821692849290911690829081613bae868561455e565b6000818152600284016020526040902080546001820154919950919250613bd58282614591565b9650613be182826145b6565b94505050505091939590929450565b6000613bfb82613412565b1592915050565b6001600160a01b031660009081526001919091016020526040902054151590565b600082815260096020526040812080546001600160a01b0384811691161480613c5b575060018101546001600160a01b038481169116145b80156109e1575050506001600160a01b03161515919050565b60008281526008602052604081206109e18184613c02565b60008281526001602052604081206109e18184614959565b6000806002856002811115613cb557fe5b1415613ccb57613cc686858561497a565b613cf5565b6001856002811115613cd957fe5b1415613cea57613cc6868585614988565b613cf5868585614996565b8215613d0f57613d0f6001600160a01b0385163385611ef3565b5050600081900394909350915050565b6000806002856002811115613d3057fe5b1415613d4657613d418685856149a4565b613d70565b6001856002811115613d5457fe5b1415613d6557613d418685856149b2565b613d708685856149c0565b8215613d8b57613d8b6001600160a01b038516333086612c29565b5090946000869003945092505050565b6000806002856002811115613dac57fe5b1415613dc457613dbd8685856149ce565b9050613df1565b6001856002811115613dd257fe5b1415613de357613dbd8685856149de565b613dee8685856149ee565b90505b6000915094509492505050565b4690565b606080600080600080613e1487613b7a565b92975090955093509150506001600160a01b0384161580613e3c57506001600160a01b038216155b15613e655750506040805160008082526020820190815281830190925294509250612a1e915050565b60408051600280825260608201835290916020830190803683370190505095508386600081518110613e9357fe5b60200260200101906001600160a01b031690816001600160a01b0316815250508186600181518110613ec157fe5b6001600160a01b03929092166020928302919091018201526040805160028082526060820183529092909190830190803683370190505094508285600081518110613f0857fe5b6020026020010181815250508085600181518110613f2257fe5b60200260200101818152505050505050915091565b60008181526008602052604090206060908190613f53816144b4565b67ffffffffffffffff81118015613f6957600080fd5b50604051908082528060200260200182016040528015613f93578160200160208202803683370190505b509250825167ffffffffffffffff81118015613fae57600080fd5b50604051908082528060200260200182016040528015613fd8578160200160208202803683370190505b50915060005b8351811015614057576000613ff383836149fe565b90508085838151811061400257fe5b6001600160a01b0392831660209182029290920181019190915260008881526007825260408082209385168252929091522054845185908490811061404357fe5b602090810291909101015250600101613fde565b5050915091565b6000818152600160205260409020606090819061407a816144b4565b67ffffffffffffffff8111801561409057600080fd5b506040519080825280602002602001820160405280156140ba578160200160208202803683370190505b509250825167ffffffffffffffff811180156140d557600080fd5b506040519080825280602002602001820160405280156140ff578160200160208202803683370190505b50915060005b8351811015614057576141188282614a2b565b85838151811061412457fe5b6020026020010185848151811061413757fe5b60209081029190910101919091526001600160a01b039091169052600101614105565b600061416582612816565b61416e83612803565b0192915050565b6000818310156141855781611729565b5090919050565b60008183106141855781611729565b6001600160a01b038085166000818152600b602090815260408083209488168084529490915290819020859055517f18e1ea4139e68413d7d08aa752e71568e36b2c5bf940893314c2c5b01eaa0c4290611a1f908590615f56565b600080614201614a4f565b90504281101561421557600091505061172c565b600061421f614a5b565b9050806142315760009250505061172c565b60008161423c614b6c565b80516020918201206040805180840194909452838101919091523360608401526080830188905260a08084018790528151808503909101815260c0909301905281519101209050600061428e82614bbb565b9050600080600061429d614c22565b925092509250600060018585858560405160008152602001604052604051808581526020018460ff1681526020018381526020018281526020019450505050506020604051602081039080840390855afa1580156142ff573d6000803e3d6000fd5b5050604051601f1901519150506001600160a01b0381161580159061433557508a6001600160a01b0316816001600160a01b0316145b9b9a5050505050505050505050565b6000806000806143538661415a565b905060006143608661415a565b905061437761436e8861282c565b612ac28861282c565b60a08a01526040517f9d2c110c0000000000000000000000000000000000000000000000000000000081526001600160a01b03891690639d2c110c906143c5908c9086908690600401616031565b602060405180830381600087803b1580156143df57600080fd5b505af11580156143f3573d6000803e3d6000fd5b505050506040513d601f19601f820116820180604052508101906144179190615bf7565b925060008061442f8b600001518c60600151876130d6565b909250905061443e89836144ce565b965061444a88826144ff565b9550505050509450945094915050565b6000806144726144698561282c565b612ac28561282c565b90506109e161448085612803565b61448985612803565b8363ffffffff16614c49565b6001600160a01b03166000908152600291909101602052604090205490565b5490565b6000908152600191820160205260409020015490565b6000806144e4836144de86612803565b90611994565b905060006144f185612816565b9050436112c5838383614c57565b6000806144e48361450f86612803565b90614c90565b60009182526001928301602052604090912090910155565b600080826001600160a01b0316846001600160a01b031610614550578284614553565b83835b915091509250929050565b60008282604051602001614573929190615d8e565b60405160208183030381529060405280519060200120905092915050565b600061172961459f84612803565b6145a884612803565b6145b18661282c565b614c57565b60006117296145c484612816565b6145a884612816565b6001600160a01b03821660009081526002840160205260408120546145f48115158461054b565b61460185600183036144b8565b95945050505050565b60006146146113ce565b6001600160a01b03166355c676286040518163ffffffff1660e01b815260040160206040518083038186803b15801561464c57600080fd5b505afa158015614660573d6000803e3d6000fd5b505050506040513d601f19601f820116820180604052508101906112ed9190615bf7565b610fa0828414801561469557508183145b606761054b565b6060835167ffffffffffffffff811180156146b657600080fd5b506040519080825280602002602001820160405280156146e0578160200160208202803683370190505b50905060005b8551518110156147d95760008482815181106146fe57fe5b6020026020010151905061472e8760200151838151811061471b57fe5b60200260200101518210156101f961054b565b60008760000151838151811061474057fe5b6020026020010151905061475a81838b8b60600151611d85565b600085848151811061476857fe5b6020026020010151905061478461477e83611b8e565b82611f73565b6147b36147918483611994565b89868151811061479d57fe5b60200260200101516144ff90919063ffffffff16565b8585815181106147bf57fe5b6020026020010181815250505050508060010190506146e6565b5095945050505050565b60606000845167ffffffffffffffff811180156147ff57600080fd5b50604051908082528060200260200182016040528015614829578160200160208202803683370190505b50915060005b86515181101561494f57600085828151811061484757fe5b602002602001015190506148778860200151838151811061486457fe5b60200260200101518211156101fa61054b565b60008860000151838151811061488957fe5b602002602001015190506148a381838c8c60600151611ca7565b6148ac81611987565b156148be576148bb8483611994565b93505b60008684815181106148cc57fe5b602002602001015190506148e261477e83611b8e565b80831015614901576148fc8382038a868151811061479d57fe5b614929565b6149298184038a868151811061491357fe5b60200260200101516144ce90919063ffffffff16565b86858151811061493557fe5b60200260200101818152505050505080600101905061482f565b506147d981611a2d565b6001600160a01b031660009081526002919091016020526040902054151590565b610e008383614ca684614ce1565b610e008383614ca684614d8c565b610e008383614ca684614de7565b610e008383614e3684614ce1565b610e008383614e3684614d8c565b610e008383614e3684614de7565b60006109e18484614e5785614ce1565b60006109e18484614e5785614d8c565b60006109e18484614e5785614de7565b6000826000018281548110614a0f57fe5b6000918252602090912001546001600160a01b03169392505050565b600090815260019182016020526040902080549101546001600160a01b0390911691565b60006112ed6000614e71565b6000803560e01c8063b95cac288114614aa357638bdb39138114614acb576352bbbe298114614af35763945bcec98114614b1b5763fa6e671d8114614b435760009250614b67565b7f3f7b71252bd19113ff48c19c6e004a9bcfcca320a0d74d58e85877cbd7dcae589250614b67565b7f8bbc57f66ea936902f50a71ce12b92c43f3c5340bb40c27c4e90ab84eeae33539250614b67565b7fe192dcbc143b1e244ad73b813fd3c097b832ad260a157340b4e5e5beda067abe9250614b67565b7f9bfc43a4d98313c6766986ffd7c916c7481566d9f224c6819af0a53388aced3a9250614b67565b7fa3f865aa351e51cfeb40f5178d1564bb629fe9030b83caf6361d1baaf5b90b5a92505b505090565b60606000368080601f0160208091040260200160405190810160405280939291908181526020018383808284376000920191909152505082519293505050608010156105485760803603815290565b6000614bc56128fd565b8260405160200180807f190100000000000000000000000000000000000000000000000000000000000081525060020183815260200182815260200192505050604051602081830303815290604052805190602001209050919050565b6000806000614c316020614e71565b9250614c3d6040614e71565b91506108416060614e71565b60e01b60709190911b010190565b6000838301614c85858210801590614c7d57506e01000000000000000000000000000082105b61020e61054b565b614601858585614c49565b6000614ca083831115600161054b565b50900390565b600080614cb68361450f86612803565b90506000614cc7846144de87612816565b90506000614cd48661282c565b90506112c5838383614c57565b6000806000806000614cf289613b7a565b9450509350935093506000836001600160a01b0316896001600160a01b03161415614d3d576000614d2784898b63ffffffff16565b9050614d338185614e7b565b9093509050614d5f565b6000614d4d83898b63ffffffff16565b9050614d598184614e7b565b90925090505b614d69838361445a565b8555614d758383614e97565b600190950194909455509192505050949350505050565b600080614d99868661277d565b90506000614dab82858763ffffffff16565b60008881526007602090815260408083206001600160a01b038b16845290915290208190559050614ddc8183614e7b565b979650505050505050565b600084815260016020526040812081614e008287613542565b90506000614e1282868863ffffffff16565b9050614e1f83888361329e565b50614e2a8183614e7b565b98975050505050505050565b600080614e46836144de86612803565b90506000614cc78461450f87612816565b600080614e6384612803565b905043614601828583614c57565b3601607f19013590565b6000614e8682612816565b614e8f84612816565b039392505050565b6000611729614ea584612816565b614eae84612816565b6000614c49565b60408051610120810190915280600081526000602082018190526040820181905260608083018290526080830182905260a0830182905260c0830182905260e08301919091526101009091015290565b604080516080810190915280600081526000602082018190526040820181905260609091015290565b60405180608001604052806060815260200160608152602001606081526020016000151581525090565b6040518060a0016040528060008019168152602001600081526020016000815260200160008152602001606081525090565b803561062f816160bc565b600082601f830112614fa5578081fd5b81356020614fba614fb58361609e565b61607a565b8281528181019085830183850287018401881015614fd6578586fd5b855b85811015614ffd578135614feb816160bc565b84529284019290840190600101614fd8565b5090979650505050505050565b600082601f83011261501a578081fd5b8135602061502a614fb58361609e565b8281528181019085830183850287018401881015615046578586fd5b855b85811015614ffd57813561505b816160bc565b84529284019290840190600101615048565b600082601f83011261507d578081fd5b8135602061508d614fb58361609e565b82815281810190858301855b85811015614ffd578135880160a080601f19838d030112156150b9578889fd5b6040805182810167ffffffffffffffff82821081831117156150d757fe5b8184528a8601358352838601358b84015260609150818601358484015260809350838601358284015284860135945080851115615112578c8dfd5b50506151228d8a858701016151fc565b91810191909152865250509284019290840190600101615099565b600082601f83011261514d578081fd5b8135602061515d614fb58361609e565b8281528181019085830183850287018401881015615179578586fd5b855b85811015614ffd5781358452928401929084019060010161517b565b600082601f8301126151a7578081fd5b815160206151b7614fb58361609e565b82815281810190858301838502870184018810156151d3578586fd5b855b85811015614ffd578151845292840192908401906001016151d5565b803561062f816160d1565b600082601f83011261520c578081fd5b813567ffffffffffffffff81111561522057fe5b615233601f8201601f191660200161607a565b818152846020838601011115615247578283fd5b816020850160208301379081016020019190915292915050565b80356002811061062f57600080fd5b600060808284031215615281578081fd5b61528b608061607a565b9050813567ffffffffffffffff808211156152a557600080fd5b6152b185838601614f95565b835260208401359150808211156152c757600080fd5b6152d38583860161513d565b602084015260408401359150808211156152ec57600080fd5b506152f9848285016151fc565b60408301525061530b606083016151f1565b606082015292915050565b600060808284031215615327578081fd5b6040516080810181811067ffffffffffffffff8211171561534457fe5b6040529050808235615355816160bc565b81526020830135615365816160d1565b60208201526040830135615378816160bc565b6040820152606083013561538b816160d1565b6060919091015292915050565b6000602082840312156153a9578081fd5b8135611729816160bc565b600080604083850312156153c6578081fd5b82356153d1816160bc565b915060208301356153e1816160bc565b809150509250929050565b600080600060608486031215615400578081fd5b833561540b816160bc565b9250602084013561541b816160bc565b9150604084013561542b816160d1565b809150509250925092565b60008060408385031215615448578182fd5b8235615453816160bc565b9150602083013567ffffffffffffffff81111561546e578182fd5b61547a8582860161500a565b9150509250929050565b60006020808385031215615496578182fd5b823567ffffffffffffffff808211156154ad578384fd5b818501915085601f8301126154c0578384fd5b81356154ce614fb58261609e565b818152848101908486016080808502870188018b10156154ec578889fd5b8896505b848710156155665780828c031215615506578889fd5b60408051828101818110898211171561551b57fe5b82528335615528816160df565b8152838a01358a8201528184013561553f816160bc565b918101919091526060838101359082015284526001969096019592870192908101906154f0565b50909998505050505050505050565b60006020808385031215615587578182fd5b823567ffffffffffffffff8082111561559e578384fd5b818501915085601f8301126155b1578384fd5b81356155bf614fb58261609e565b8181528481019084860160a0808502870188018b10156155dd578889fd5b8896505b848710156155665780828c0312156155f7578889fd5b60408051828101818110898211171561560c57fe5b825283356004811061561c578b8cfd5b8152615629848b01614f8a565b8a820152818401358282015260609150615644828501614f8a565b8282015260809150615657828501614f8a565b9181019190915284526001969096019592870192908101906155e1565b60008060408385031215615686578182fd5b825167ffffffffffffffff8082111561569d578384fd5b6156a986838701615197565b935060208501519150808211156156be578283fd5b5061547a85828601615197565b6000602082840312156156dc578081fd5b8135611729816160d1565b6000602082840312156156f8578081fd5b8151611729816160d1565b600060208284031215615714578081fd5b5035919050565b60008060008060808587031215615730578182fd5b843593506020850135615742816160bc565b92506040850135615752816160bc565b9150606085013567ffffffffffffffff81111561576d578182fd5b61577987828801615270565b91505092959194509250565b60008060408385031215615797578182fd5b82359150602083013567ffffffffffffffff81111561546e578182fd5b6000806000606084860312156157c8578081fd5b8335925060208085013567ffffffffffffffff808211156157e7578384fd5b6157f38883890161500a565b94506040870135915080821115615808578384fd5b508501601f81018713615819578283fd5b8035615827614fb58261609e565b81815283810190838501858402850186018b1015615843578687fd5b8694505b8385101561586e57803561585a816160bc565b835260019490940193918501918501615847565b5080955050505050509250925092565b60008060408385031215615890578182fd5b8235915060208301356153e1816160bc565b6000602082840312156158b3578081fd5b81357fffffffff0000000000000000000000000000000000000000000000000000000081168114611729578182fd5b600080600080608085870312156158f7578182fd5b8435615902816160bc565b9350602085013567ffffffffffffffff8082111561591e578384fd5b61592a8883890161500a565b9450604087013591508082111561593f578384fd5b61594b8883890161513d565b93506060870135915080821115615960578283fd5b50615779878288016151fc565b60006020828403121561597e578081fd5b8135611729816160df565b60008060008060e0858703121561599e578182fd5b6159a785615261565b9350602085013567ffffffffffffffff808211156159c3578384fd5b6159cf8883890161506d565b945060408701359150808211156159e4578384fd5b506159f187828801614f95565b925050615a018660608701615316565b905092959194509250565b6000806000806000806101208789031215615a25578384fd5b615a2e87615261565b955060208088013567ffffffffffffffff80821115615a4b578687fd5b615a578b838c0161506d565b975060408a0135915080821115615a6c578687fd5b615a788b838c01614f95565b9650615a878b60608c01615316565b955060e08a0135915080821115615a9c578485fd5b508801601f81018a13615aad578384fd5b8035615abb614fb58261609e565b81815283810190838501858402850186018e1015615ad7578788fd5b8794505b83851015615af9578035835260019490940193918501918501615adb565b50809650505050505061010087013590509295509295509295565b60008060008060e08587031215615b29578182fd5b843567ffffffffffffffff80821115615b40578384fd5b9086019060c08289031215615b53578384fd5b60405160c081018181108382111715615b6857fe5b60405282358152615b7b60208401615261565b6020820152615b8c60408401614f8a565b6040820152615b9d60608401614f8a565b60608201526080830135608082015260a083013582811115615bbd578586fd5b615bc98a8286016151fc565b60a083015250809650505050615be28660208701615316565b939693955050505060a08201359160c0013590565b600060208284031215615c08578081fd5b5051919050565b6001600160a01b03169052565b6000815180845260208085019450808401835b83811015615c545781516001600160a01b031687529582019590820190600101615c2f565b509495945050505050565b6000815180845260208085019450808401835b83811015615c5457815187529582019590820190600101615c72565b60008151808452815b81811015615cb357602081850181015186830182015201615c97565b81811115615cc45782602083870101525b50601f01601f19169290920160200192915050565b60038110615ce357fe5b9052565b6000610120825160028110615cf857fe5b808552506020830151615d0e6020860182615c0f565b506040830151615d216040860182615c0f565b50606083015160608501526080830151608085015260a083015160a085015260c0830151615d5260c0860182615c0f565b5060e0830151615d6560e0860182615c0f565b506101008084015182828701526112c583870182615c8e565b6000828483379101908152919050565b6bffffffffffffffffffffffff19606093841b811682529190921b16601482015260280190565b6001600160a01b0391909116815260200190565b6001600160a01b0383168152604081016118c56020830184615cd9565b6001600160a01b03929092168252602082015260400190565b6000602082526117296020830184615c1c565b600060408252615e256040830185615c1c565b828103602084810191909152845180835285820192820190845b81811015614ffd5784516001600160a01b031683529383019391830191600101615e3f565b600060608252615e776060830186615c1c565b8281036020840152615e898186615c5f565b905082810360408401526112c58185615c5f565b600060808252615eb06080830187615c1c565b8281036020840152615ec28187615c5f565b90508281036040840152615ed68186615c5f565b90508281036060840152614ddc8185615c8e565b600060608252615efd6060830186615c1c565b8281036020840152615f0f8186615c5f565b915050826040830152949350505050565b6000602082526117296020830184615c5f565b901515815260200190565b92151583526020830191909152604082015260600190565b90815260200190565b9283526001600160a01b03918216602084015216604082015260600190565b60008882526001600160a01b03808916602084015280881660408401525060e06060830152615fb060e0830187615c5f565b8560808401528460a084015282810360c0840152615fce8185615c8e565b9a9950505050505050505050565b6020810161172c8284615cd9565b918252602082015260400190565b60006080825261600b6080830187615ce7565b828103602084015261601d8187615c5f565b604084019590955250506060015292915050565b6000606082526160446060830186615ce7565b60208301949094525060400152919050565b938452602084019290925260408301526001600160a01b0316606082015260800190565b60405181810167ffffffffffffffff8111828210171561609657fe5b604052919050565b600067ffffffffffffffff8211156160b257fe5b5060209081020190565b6001600160a01b038116811461057e57600080fd5b801515811461057e57600080fd5b6003811061057e57600080fdfea26469706673582212204cef7401ae06a0553cfe5f9754d9288302a91ba7cc3f4c89044c2f6070c82c0064736f6c6343000706003360c060405234801561001057600080fd5b50604051610ba5380380610ba583398101604081905261002f9161004d565b30608052600160005560601b6001600160601b03191660a05261007b565b60006020828403121561005e578081fd5b81516001600160a01b0381168114610074578182fd5b9392505050565b60805160a05160601c610aff6100a66000398061043352806105665250806102a95250610aff6000f3fe608060405234801561001057600080fd5b50600436106100a35760003560e01c8063851c1bb311610076578063d877845c1161005b578063d877845c14610129578063e42abf3514610131578063fbfa77cf14610151576100a3565b8063851c1bb314610101578063aaabadc514610114576100a3565b806338e9922e146100a857806355c67628146100bd5780636b6b9f69146100db5780636daefab6146100ee575b600080fd5b6100bb6100b6366004610a04565b610159565b005b6100c56101b8565b6040516100d29190610a8c565b60405180910390f35b6100bb6100e9366004610a04565b6101be565b6100bb6100fc366004610836565b610211565b6100c561010f36600461098c565b6102a3565b61011c610315565b6040516100d29190610a34565b6100c5610324565b61014461013f3660046108b7565b61032a565b6040516100d29190610a48565b61011c610431565b610161610455565b6101786706f05b59d3b2000082111561025861049e565b60018190556040517fa9ba3ffe0b6c366b81232caab38605a0699ad5398d6cce76f91ee809e322dafc906101ad908390610a8c565b60405180910390a150565b60015490565b6101c6610455565b6101dc662386f26fc1000082111561025961049e565b60028190556040517f5a0b7386237e7f07fa741efc64e59c9387d2cccafec760efed4d53387f20e19a906101ad908390610a8c565b6102196104b0565b610221610455565b61022b84836104c9565b60005b8481101561029357600086868381811061024457fe5b905060200201602081019061025991906109e8565b9050600085858481811061026957fe5b6020029190910135915061028990506001600160a01b03831685836104d6565b505060010161022e565b5061029c61055b565b5050505050565b604080517f00000000000000000000000000000000000000000000000000000000000000006020808301919091527fffffffff0000000000000000000000000000000000000000000000000000000084168284015282516024818403018152604490920190925280519101205b919050565b600061031f610562565b905090565b60025490565b6060815167ffffffffffffffff8111801561034457600080fd5b5060405190808252806020026020018201604052801561036e578160200160208202803683370190505b50905060005b825181101561042b5782818151811061038957fe5b60200260200101516001600160a01b03166370a08231306040518263ffffffff1660e01b81526004016103bc9190610a34565b60206040518083038186803b1580156103d457600080fd5b505afa1580156103e8573d6000803e3d6000fd5b505050506040513d601f19601f8201168201806040525081019061040c9190610a1c565b82828151811061041857fe5b6020908102919091010152600101610374565b50919050565b7f000000000000000000000000000000000000000000000000000000000000000081565b60006104846000357fffffffff00000000000000000000000000000000000000000000000000000000166102a3565b905061049b61049382336105f5565b61019161049e565b50565b816104ac576104ac81610685565b5050565b6104c26002600054141561019061049e565b6002600055565b6104ac818314606761049e565b604080516001600160a01b038416602482015260448082018490528251808303909101815260649091019091526020810180517bffffffffffffffffffffffffffffffffffffffffffffffffffffffff167fa9059cbb000000000000000000000000000000000000000000000000000000001790526105569084906106f2565b505050565b6001600055565b60007f00000000000000000000000000000000000000000000000000000000000000006001600160a01b031663aaabadc56040518163ffffffff1660e01b815260040160206040518083038186803b1580156105bd57600080fd5b505afa1580156105d1573d6000803e3d6000fd5b505050506040513d601f19601f8201168201806040525081019061031f91906109cc565b60006105ff610562565b6001600160a01b0316639be2a8848484306040518463ffffffff1660e01b815260040161062e93929190610a95565b60206040518083038186803b15801561064657600080fd5b505afa15801561065a573d6000803e3d6000fd5b505050506040513d601f19601f8201168201806040525081019061067e919061096c565b9392505050565b7f08c379a0000000000000000000000000000000000000000000000000000000006000908152602060045260076024526642414c23000030600a808404818106603090810160081b95839006959095019082900491820690940160101b939093010160c81b604452606490fd5b600080836001600160a01b0316836040518082805190602001908083835b6020831061072f5780518252601f199092019160209182019101610710565b6001836020036101000a0380198251168184511680821785525050505050509050019150506000604051808303816000865af19150503d8060008114610791576040519150601f19603f3d011682016040523d82523d6000602084013e610796565b606091505b509150915060008214156107ae573d6000803e3d6000fd5b6107dc8151600014806107d457508180602001905160208110156107d157600080fd5b50515b6101a261049e565b50505050565b60008083601f8401126107f3578081fd5b50813567ffffffffffffffff81111561080a578182fd5b602083019150836020808302850101111561082457600080fd5b9250929050565b803561031081610ab4565b60008060008060006060868803121561084d578081fd5b853567ffffffffffffffff80821115610864578283fd5b61087089838a016107e2565b90975095506020880135915080821115610888578283fd5b50610895888289016107e2565b90945092505060408601356108a981610ab4565b809150509295509295909350565b600060208083850312156108c9578182fd5b823567ffffffffffffffff808211156108e0578384fd5b818501915085601f8301126108f3578384fd5b8135818111156108ff57fe5b8381026040518582820101818110858211171561091857fe5b604052828152858101935084860182860187018a1015610936578788fd5b8795505b8386101561095f5761094b8161082b565b85526001959095019493860193860161093a565b5098975050505050505050565b60006020828403121561097d578081fd5b8151801515811461067e578182fd5b60006020828403121561099d578081fd5b81357fffffffff000000000000000000000000000000000000000000000000000000008116811461067e578182fd5b6000602082840312156109dd578081fd5b815161067e81610ab4565b6000602082840312156109f9578081fd5b813561067e81610ab4565b600060208284031215610a15578081fd5b5035919050565b600060208284031215610a2d578081fd5b5051919050565b6001600160a01b0391909116815260200190565b6020808252825182820181905260009190848201906040850190845b81811015610a8057835183529284019291840191600101610a64565b50909695505050505050565b90815260200190565b9283526001600160a01b03918216602084015216604082015260600190565b6001600160a01b038116811461049b57600080fdfea264697066735822122010bd7c8dfacd2304516822bfffd8ee23420409d0cefb616969310ea700a00c0d64736f6c63430007060033",
  "linkReferences": {},
  "deployedLinkReferences": {}
}